{
  "transactions": [
    {
      "hash": "0x3f67ee3f9e1c30e40b1cf07927abddcc0d51a9ead729b2c3400dce55345ac4ea",
      "transactionType": "CALL",
      "contractName": null,
      "contractAddress": "0xba5ed099633d3b313e4d5f7bdc1305d3c28ba5ed",
      "function": "deployCreate2(bytes32,bytes)",
      "arguments": [
        "0x1945bc9ea702754305e8e5b6136f9c6d555e771d669a995ee2917c7e652a6da1",
        "0x60e060405234801561000f575f5ffd5b50604051610a27380380610a2783398101604081905261002e916100b7565b60015f556001600160a01b038316158061004f57506001600160a01b038216155b8061006157506001600160a01b038116155b1561007f5760405163d92e233d60e01b815260040160405180910390fd5b6001600160a01b0392831660805290821660a0521660c0526100f7565b80516001600160a01b03811681146100b2575f5ffd5b919050565b5f5f5f606084860312156100c9575f5ffd5b6100d28461009c565b92506100e06020850161009c565b91506100ee6040850161009c565b90509250925092565b60805160a05160c0516108dc61014b5f395f81816101f301526104f401525f81816101750152818161025301526105c601525f81816101c0015281816103930152818161044b015261068001526108dc5ff3fe60806040526004361061007c575f3560e01c8063d85856351161004c578063d858563514610164578063e479ef9a146101af578063eee24219146101e2578063f350972214610215575f5ffd5b80635f9d1f03146100e857806368c2005714610110578063727fca5f1461012457806375ca208d14610145575f5ffd5b366100e45760405162461bcd60e51b815260206004820152602e60248201527f427269646765457363726f773a2044697265637420455448207472616e73666560448201526d1c9cc81b9bdd08185b1b1bddd95960921b606482015260840160405180910390fd5b5f5ffd5b3480156100f3575f5ffd5b506100fd60015481565b6040519081526020015b60405180910390f35b34801561011b575f5ffd5b506100fd600181565b34801561012f575f5ffd5b5061014361013e3660046107a6565b610240565b005b348015610150575f5ffd5b5061014361015f3660046107e4565b6105b3565b34801561016f575f5ffd5b506101977f000000000000000000000000000000000000000000000000000000000000000081565b6040516001600160a01b039091168152602001610107565b3480156101ba575f5ffd5b506101977f000000000000000000000000000000000000000000000000000000000000000081565b3480156101ed575f5ffd5b506101977f000000000000000000000000000000000000000000000000000000000000000081565b348015610220575f5ffd5b506100fd61022f366004610829565b60026020525f908152604090205481565b610248610763565b336001600160a01b037f00000000000000000000000000000000000000000000000000000000000000001614610291576040516324fbc28560e21b815260040160405180910390fd5b6001600160a01b0385166102b85760405163d92e233d60e01b815260040160405180910390fd5b835f036102d85760405163162908e360e11b815260040160405180910390fd5b5f83815260026020526040902054841115610306576040516310da391960e21b815260040160405180910390fd5b836001541015610329576040516310da391960e21b815260040160405180910390fd5b60014603610425575f838152600260205260408120805486929061034e908490610854565b925050819055508360015f8282546103669190610854565b909155505060405163a9059cbb60e01b81526001600160a01b038681166004830152602482018690525f917f00000000000000000000000000000000000000000000000000000000000000009091169063a9059cbb906044016020604051808303815f875af11580156103db573d5f5f3e3d5ffd5b505050506040513d601f19601f820116820180604052508101906103ff919061086d565b90508061041f576040516312171d8360e31b815260040160405180910390fd5b50610554565b6040516340c10f1960e01b81526001600160a01b038681166004830152602482018690527f000000000000000000000000000000000000000000000000000000000000000016906340c10f19906044015f604051808303815f87803b15801561048c575f5ffd5b505af115801561049e573d5f5f3e3d5ffd5b5050505f84815260026020526040812080548793509091906104c1908490610854565b925050819055508360015f8282546104d99190610854565b9091555050604051630575902360e31b8152600481018290527f00000000000000000000000000000000000000000000000000000000000000006001600160a01b031690632bac8118906024015f604051808303815f87803b15801561053d575f5ffd5b505af115801561054f573d5f5f3e3d5ffd5b505050505b604080518581526020810184905290810182905283906001600160a01b038716907fc537e8b35b25787c1d115c680a55386846113bc6a1fd425ac89372ada0924960906060015b60405180910390a36105ac60015f55565b5050505050565b6105bb610763565b336001600160a01b037f00000000000000000000000000000000000000000000000000000000000000001614610604576040516324fbc28560e21b815260040160405180910390fd5b845f036106245760405163162908e360e11b815260040160405180910390fd5b6001460361066a578460015f82825461063d9190610893565b90915550505f848152600260205260408120805487929061065f908490610893565b909155506107189050565b604051630852cd8d60e31b8152600481018690527f00000000000000000000000000000000000000000000000000000000000000006001600160a01b0316906342966c68906024015f604051808303815f87803b1580156106c9575f5ffd5b505af11580156106db573d5f5f3e3d5ffd5b505050508460015f8282546106f09190610893565b90915550505f8481526002602052604081208054879290610712908490610893565b90915550505b604080518681526020810185905290810183905284906001600160a01b038316907f6ea9ddd9345eddd832a547668989e36e0ba546c9321c8c2ec6b9c6c738568fbd9060600161059b565b60025f540361078557604051633ee5aeb560e01b815260040160405180910390fd5b60025f55565b80356001600160a01b03811681146107a1575f5ffd5b919050565b5f5f5f5f5f60a086880312156107ba575f5ffd5b6107c38661078b565b97602087013597506040870135966060810135965060800135945092505050565b5f5f5f5f5f60a086880312156107f8575f5ffd5b8535945060208601359350604086013592506060860135915061081d6080870161078b565b90509295509295909350565b5f60208284031215610839575f5ffd5b5035919050565b634e487b7160e01b5f52601160045260245ffd5b8181038181111561086757610867610840565b92915050565b5f6020828403121561087d575f5ffd5b8151801515811461088c575f5ffd5b9392505050565b808201808211156108675761086761084056fea2646970667358221220716fd2e1ec8df83eb2e32aa9814c57597fcd830f1bce2745befd2d5ba71dc72264736f6c634300081d00330000000000000000000000009896dfad4c53f43e97710c57dd3d914f473432030000000000000000000000004de19965da7166eda659e3966d127cc47ab0aedc000000000000000000000000df5ddd2b481eeb07a17fd2cd328ac2b87406b61b"
      ],
      "transaction": {
        "from": "0x555350445e1f1ca212edb8cf397a383695ff7a36",
        "to": "0xba5ed099633d3b313e4d5f7bdc1305d3c28ba5ed",
        "gas": "0xcd398",
        "value": "0x0",
        "input": "0x263076681945bc9ea702754305e8e5b6136f9c6d555e771d669a995ee2917c7e652a6da100000000000000000000000000000000000000000000000000000000000000400000000000000000000000000000000000000000000000000000000000000a8760e060405234801561000f575f5ffd5b50604051610a27380380610a2783398101604081905261002e916100b7565b60015f556001600160a01b038316158061004f57506001600160a01b038216155b8061006157506001600160a01b038116155b1561007f5760405163d92e233d60e01b815260040160405180910390fd5b6001600160a01b0392831660805290821660a0521660c0526100f7565b80516001600160a01b03811681146100b2575f5ffd5b919050565b5f5f5f606084860312156100c9575f5ffd5b6100d28461009c565b92506100e06020850161009c565b91506100ee6040850161009c565b90509250925092565b60805160a05160c0516108dc61014b5f395f81816101f301526104f401525f81816101750152818161025301526105c601525f81816101c0015281816103930152818161044b015261068001526108dc5ff3fe60806040526004361061007c575f3560e01c8063d85856351161004c578063d858563514610164578063e479ef9a146101af578063eee24219146101e2578063f350972214610215575f5ffd5b80635f9d1f03146100e857806368c2005714610110578063727fca5f1461012457806375ca208d14610145575f5ffd5b366100e45760405162461bcd60e51b815260206004820152602e60248201527f427269646765457363726f773a2044697265637420455448207472616e73666560448201526d1c9cc81b9bdd08185b1b1bddd95960921b606482015260840160405180910390fd5b5f5ffd5b3480156100f3575f5ffd5b506100fd60015481565b6040519081526020015b60405180910390f35b34801561011b575f5ffd5b506100fd600181565b34801561012f575f5ffd5b5061014361013e3660046107a6565b610240565b005b348015610150575f5ffd5b5061014361015f3660046107e4565b6105b3565b34801561016f575f5ffd5b506101977f000000000000000000000000000000000000000000000000000000000000000081565b6040516001600160a01b039091168152602001610107565b3480156101ba575f5ffd5b506101977f000000000000000000000000000000000000000000000000000000000000000081565b3480156101ed575f5ffd5b506101977f000000000000000000000000000000000000000000000000000000000000000081565b348015610220575f5ffd5b506100fd61022f366004610829565b60026020525f908152604090205481565b610248610763565b336001600160a01b037f00000000000000000000000000000000000000000000000000000000000000001614610291576040516324fbc28560e21b815260040160405180910390fd5b6001600160a01b0385166102b85760405163d92e233d60e01b815260040160405180910390fd5b835f036102d85760405163162908e360e11b815260040160405180910390fd5b5f83815260026020526040902054841115610306576040516310da391960e21b815260040160405180910390fd5b836001541015610329576040516310da391960e21b815260040160405180910390fd5b60014603610425575f838152600260205260408120805486929061034e908490610854565b925050819055508360015f8282546103669190610854565b909155505060405163a9059cbb60e01b81526001600160a01b038681166004830152602482018690525f917f00000000000000000000000000000000000000000000000000000000000000009091169063a9059cbb906044016020604051808303815f875af11580156103db573d5f5f3e3d5ffd5b505050506040513d601f19601f820116820180604052508101906103ff919061086d565b90508061041f576040516312171d8360e31b815260040160405180910390fd5b50610554565b6040516340c10f1960e01b81526001600160a01b038681166004830152602482018690527f000000000000000000000000000000000000000000000000000000000000000016906340c10f19906044015f604051808303815f87803b15801561048c575f5ffd5b505af115801561049e573d5f5f3e3d5ffd5b5050505f84815260026020526040812080548793509091906104c1908490610854565b925050819055508360015f8282546104d99190610854565b9091555050604051630575902360e31b8152600481018290527f00000000000000000000000000000000000000000000000000000000000000006001600160a01b031690632bac8118906024015f604051808303815f87803b15801561053d575f5ffd5b505af115801561054f573d5f5f3e3d5ffd5b505050505b604080518581526020810184905290810182905283906001600160a01b038716907fc537e8b35b25787c1d115c680a55386846113bc6a1fd425ac89372ada0924960906060015b60405180910390a36105ac60015f55565b5050505050565b6105bb610763565b336001600160a01b037f00000000000000000000000000000000000000000000000000000000000000001614610604576040516324fbc28560e21b815260040160405180910390fd5b845f036106245760405163162908e360e11b815260040160405180910390fd5b6001460361066a578460015f82825461063d9190610893565b90915550505f848152600260205260408120805487929061065f908490610893565b909155506107189050565b604051630852cd8d60e31b8152600481018690527f00000000000000000000000000000000000000000000000000000000000000006001600160a01b0316906342966c68906024015f604051808303815f87803b1580156106c9575f5ffd5b505af11580156106db573d5f5f3e3d5ffd5b505050508460015f8282546106f09190610893565b90915550505f8481526002602052604081208054879290610712908490610893565b90915550505b604080518681526020810185905290810183905284906001600160a01b038316907f6ea9ddd9345eddd832a547668989e36e0ba546c9321c8c2ec6b9c6c738568fbd9060600161059b565b60025f540361078557604051633ee5aeb560e01b815260040160405180910390fd5b60025f55565b80356001600160a01b03811681146107a1575f5ffd5b919050565b5f5f5f5f5f60a086880312156107ba575f5ffd5b6107c38661078b565b97602087013597506040870135966060810135965060800135945092505050565b5f5f5f5f5f60a086880312156107f8575f5ffd5b8535945060208601359350604086013592506060860135915061081d6080870161078b565b90509295509295909350565b5f60208284031215610839575f5ffd5b5035919050565b634e487b7160e01b5f52601160045260245ffd5b8181038181111561086757610867610840565b92915050565b5f6020828403121561087d575f5ffd5b8151801515811461088c575f5ffd5b9392505050565b808201808211156108675761086761084056fea2646970667358221220716fd2e1ec8df83eb2e32aa9814c57597fcd830f1bce2745befd2d5ba71dc72264736f6c634300081d00330000000000000000000000009896dfad4c53f43e97710c57dd3d914f473432030000000000000000000000004de19965da7166eda659e3966d127cc47ab0aedc000000000000000000000000df5ddd2b481eeb07a17fd2cd328ac2b87406b61b00000000000000000000000000000000000000000000000000",
        "nonce": "0x20",
        "chainId": "0x14a34"
      },
      "additionalContracts": [
        {
          "transactionType": "CREATE2",
          "address": "0x987cc3ad31f9ea620452747cb43b282d280d1d39",
          "initCode": "0x60e060405234801561000f575f5ffd5b50604051610a27380380610a2783398101604081905261002e916100b7565b60015f556001600160a01b038316158061004f57506001600160a01b038216155b8061006157506001600160a01b038116155b1561007f5760405163d92e233d60e01b815260040160405180910390fd5b6001600160a01b0392831660805290821660a0521660c0526100f7565b80516001600160a01b03811681146100b2575f5ffd5b919050565b5f5f5f606084860312156100c9575f5ffd5b6100d28461009c565b92506100e06020850161009c565b91506100ee6040850161009c565b90509250925092565b60805160a05160c0516108dc61014b5f395f81816101f301526104f401525f81816101750152818161025301526105c601525f81816101c0015281816103930152818161044b015261068001526108dc5ff3fe60806040526004361061007c575f3560e01c8063d85856351161004c578063d858563514610164578063e479ef9a146101af578063eee24219146101e2578063f350972214610215575f5ffd5b80635f9d1f03146100e857806368c2005714610110578063727fca5f1461012457806375ca208d14610145575f5ffd5b366100e45760405162461bcd60e51b815260206004820152602e60248201527f427269646765457363726f773a2044697265637420455448207472616e73666560448201526d1c9cc81b9bdd08185b1b1bddd95960921b606482015260840160405180910390fd5b5f5ffd5b3480156100f3575f5ffd5b506100fd60015481565b6040519081526020015b60405180910390f35b34801561011b575f5ffd5b506100fd600181565b34801561012f575f5ffd5b5061014361013e3660046107a6565b610240565b005b348015610150575f5ffd5b5061014361015f3660046107e4565b6105b3565b34801561016f575f5ffd5b506101977f000000000000000000000000000000000000000000000000000000000000000081565b6040516001600160a01b039091168152602001610107565b3480156101ba575f5ffd5b506101977f000000000000000000000000000000000000000000000000000000000000000081565b3480156101ed575f5ffd5b506101977f000000000000000000000000000000000000000000000000000000000000000081565b348015610220575f5ffd5b506100fd61022f366004610829565b60026020525f908152604090205481565b610248610763565b336001600160a01b037f00000000000000000000000000000000000000000000000000000000000000001614610291576040516324fbc28560e21b815260040160405180910390fd5b6001600160a01b0385166102b85760405163d92e233d60e01b815260040160405180910390fd5b835f036102d85760405163162908e360e11b815260040160405180910390fd5b5f83815260026020526040902054841115610306576040516310da391960e21b815260040160405180910390fd5b836001541015610329576040516310da391960e21b815260040160405180910390fd5b60014603610425575f838152600260205260408120805486929061034e908490610854565b925050819055508360015f8282546103669190610854565b909155505060405163a9059cbb60e01b81526001600160a01b038681166004830152602482018690525f917f00000000000000000000000000000000000000000000000000000000000000009091169063a9059cbb906044016020604051808303815f875af11580156103db573d5f5f3e3d5ffd5b505050506040513d601f19601f820116820180604052508101906103ff919061086d565b90508061041f576040516312171d8360e31b815260040160405180910390fd5b50610554565b6040516340c10f1960e01b81526001600160a01b038681166004830152602482018690527f000000000000000000000000000000000000000000000000000000000000000016906340c10f19906044015f604051808303815f87803b15801561048c575f5ffd5b505af115801561049e573d5f5f3e3d5ffd5b5050505f84815260026020526040812080548793509091906104c1908490610854565b925050819055508360015f8282546104d99190610854565b9091555050604051630575902360e31b8152600481018290527f00000000000000000000000000000000000000000000000000000000000000006001600160a01b031690632bac8118906024015f604051808303815f87803b15801561053d575f5ffd5b505af115801561054f573d5f5f3e3d5ffd5b505050505b604080518581526020810184905290810182905283906001600160a01b038716907fc537e8b35b25787c1d115c680a55386846113bc6a1fd425ac89372ada0924960906060015b60405180910390a36105ac60015f55565b5050505050565b6105bb610763565b336001600160a01b037f00000000000000000000000000000000000000000000000000000000000000001614610604576040516324fbc28560e21b815260040160405180910390fd5b845f036106245760405163162908e360e11b815260040160405180910390fd5b6001460361066a578460015f82825461063d9190610893565b90915550505f848152600260205260408120805487929061065f908490610893565b909155506107189050565b604051630852cd8d60e31b8152600481018690527f00000000000000000000000000000000000000000000000000000000000000006001600160a01b0316906342966c68906024015f604051808303815f87803b1580156106c9575f5ffd5b505af11580156106db573d5f5f3e3d5ffd5b505050508460015f8282546106f09190610893565b90915550505f8481526002602052604081208054879290610712908490610893565b90915550505b604080518681526020810185905290810183905284906001600160a01b038316907f6ea9ddd9345eddd832a547668989e36e0ba546c9321c8c2ec6b9c6c738568fbd9060600161059b565b60025f540361078557604051633ee5aeb560e01b815260040160405180910390fd5b60025f55565b80356001600160a01b03811681146107a1575f5ffd5b919050565b5f5f5f5f5f60a086880312156107ba575f5ffd5b6107c38661078b565b97602087013597506040870135966060810135965060800135945092505050565b5f5f5f5f5f60a086880312156107f8575f5ffd5b8535945060208601359350604086013592506060860135915061081d6080870161078b565b90509295509295909350565b5f60208284031215610839575f5ffd5b5035919050565b634e487b7160e01b5f52601160045260245ffd5b8181038181111561086757610867610840565b92915050565b5f6020828403121561087d575f5ffd5b8151801515811461088c575f5ffd5b9392505050565b808201808211156108675761086761084056fea2646970667358221220716fd2e1ec8df83eb2e32aa9814c57597fcd830f1bce2745befd2d5ba71dc72264736f6c634300081d00330000000000000000000000009896dfad4c53f43e97710c57dd3d914f473432030000000000000000000000004de19965da7166eda659e3966d127cc47ab0aedc000000000000000000000000df5ddd2b481eeb07a17fd2cd328ac2b87406b61b"
        }
      ],
      "isFixedGasLimit": false
    },
    {
      "hash": "0x5a4dd3f232b599db69d90b22b126bfca06257bab365ec21b00b538a26173950b",
      "transactionType": "CALL",
      "contractName": "cUSPDToken",
      "contractAddress": "0x9896dfad4c53f43e97710c57dd3d914f47343203",
      "function": "grantRole(bytes32,address)",
      "arguments": [
        "0x9f2df0fed2c77648de5860a4cc508cd0818c85b8b8a1ab4ceeef8d981c8956a6",
        "0x987Cc3AD31f9EA620452747cB43b282D280d1d39"
      ],
      "transaction": {
        "from": "0x555350445e1f1ca212edb8cf397a383695ff7a36",
        "to": "0x9896dfad4c53f43e97710c57dd3d914f47343203",
        "gas": "0x126a8",
        "value": "0x0",
        "input": "0x2f2ff15d9f2df0fed2c77648de5860a4cc508cd0818c85b8b8a1ab4ceeef8d981c8956a6000000000000000000000000987cc3ad31f9ea620452747cb43b282d280d1d39",
        "nonce": "0x21",
        "chainId": "0x14a34"
      },
      "additionalContracts": [],
      "isFixedGasLimit": false
    },
    {
      "hash": "0x645f7dfa1fd5707536bd8bbe4092102c83f1abff42ce49a2417a85539872cc87",
      "transactionType": "CALL",
      "contractName": "cUSPDToken",
      "contractAddress": "0x9896dfad4c53f43e97710c57dd3d914f47343203",
      "function": "grantRole(bytes32,address)",
      "arguments": [
        "0x3c11d16cbaffd01df69ce1c404f6340ee057498f5f00246190ea54220576a848",
        "0x987Cc3AD31f9EA620452747cB43b282D280d1d39"
      ],
      "transaction": {
        "from": "0x555350445e1f1ca212edb8cf397a383695ff7a36",
        "to": "0x9896dfad4c53f43e97710c57dd3d914f47343203",
        "gas": "0x11638",
        "value": "0x0",
        "input": "0x2f2ff15d3c11d16cbaffd01df69ce1c404f6340ee057498f5f00246190ea54220576a848000000000000000000000000987cc3ad31f9ea620452747cb43b282d280d1d39",
        "nonce": "0x22",
        "chainId": "0x14a34"
      },
      "additionalContracts": [],
      "isFixedGasLimit": false
    },
    {
      "hash": "0xb44b82746bcf4e5364e1cff8080df070f2818e553ec7f7a76f3f1ebf8dc93d2e",
      "transactionType": "CALL",
      "contractName": null,
      "contractAddress": "0xdf5ddd2b481eeb07a17fd2cd328ac2b87406b61b",
      "function": "grantRole(bytes32,address)",
      "arguments": [
        "0x6349981c8f973aae243626fb13628338972392c22bccc395c05a43c57e7f2439",
        "0x987Cc3AD31f9EA620452747cB43b282D280d1d39"
      ],
      "transaction": {
        "from": "0x555350445e1f1ca212edb8cf397a383695ff7a36",
        "to": "0xdf5ddd2b481eeb07a17fd2cd328ac2b87406b61b",
        "gas": "0x1157f",
        "value": "0x0",
        "input": "0x2f2ff15d6349981c8f973aae243626fb13628338972392c22bccc395c05a43c57e7f2439000000000000000000000000987cc3ad31f9ea620452747cb43b282d280d1d39",
        "nonce": "0x23",
        "chainId": "0x14a34"
      },
      "additionalContracts": [],
      "isFixedGasLimit": false
    }
  ],
  "receipts": [
    {
      "status": "0x1",
      "cumulativeGasUsed": "0x1db915",
      "logs": [
        {
          "address": "0xba5ed099633d3b313e4d5f7bdc1305d3c28ba5ed",
          "topics": [
            "0xb8fda7e00c6b06a2b54e58521bc5894fee35f1090e5a3bb6390bfe2b98b497f7",
            "0x000000000000000000000000987cc3ad31f9ea620452747cb43b282d280d1d39",
            "0x937108f9f666f9429c4240d36b7efed4a68e6c06ca374ceff52bec74e55cc135"
          ],
          "data": "0x",
          "blockHash": "0xe4e9752fdc1a20c611e648d43fe49254b94f4e83c8458af7a3b290aed766f0ce",
          "blockNumber": "0x1a97b89",
          "blockTimestamp": "0x686655f2",
          "transactionHash": "0x3f67ee3f9e1c30e40b1cf07927abddcc0d51a9ead729b2c3400dce55345ac4ea",
          "transactionIndex": "0x4",
          "logIndex": "0x1",
          "removed": false
        }
      ],
      "logsBloom": "0x00020000000000000000000000000000000000000000000000000000000000000000000000000000004000000000000000000000000000000002000000000008000000000000000000000000000000000000000000000000000000000002000000000000000000000000000000000000040000000000000000000000000000000000000000000000000000000000100000000000000000000000000000000000000080000000000000000000000000000000000000000000000000000000000000000000004000000200000000000000000000002000000100000000000000000000000000000000000000000000000000000000000000000000000000000000",
      "type": "0x2",
      "transactionHash": "0x3f67ee3f9e1c30e40b1cf07927abddcc0d51a9ead729b2c3400dce55345ac4ea",
      "transactionIndex": "0x4",
      "blockHash": "0xe4e9752fdc1a20c611e648d43fe49254b94f4e83c8458af7a3b290aed766f0ce",
      "blockNumber": "0x1a97b89",
      "gasUsed": "0x8c532",
      "effectiveGasPrice": "0xf42e2",
      "from": "0x555350445e1f1ca212edb8cf397a383695ff7a36",
      "to": "0xba5ed099633d3b313e4d5f7bdc1305d3c28ba5ed",
      "contractAddress": null,
      "l1BaseFeeScalar": "0x44d",
      "l1BlobBaseFee": "0x1",
      "l1BlobBaseFeeScalar": "0xa118b",
      "l1Fee": "0x3eec26d958",
      "l1GasPrice": "0x2526312e2",
      "l1GasUsed": "0x6026"
    },
    {
      "status": "0x1",
      "cumulativeGasUsed": "0x1e828f",
      "logs": [
        {
          "address": "0x9896dfad4c53f43e97710c57dd3d914f47343203",
          "topics": [
            "0x2f8788117e7eff1d82e926ec794901d17c78024a50270940304540a733656f0d",
            "0x9f2df0fed2c77648de5860a4cc508cd0818c85b8b8a1ab4ceeef8d981c8956a6",
            "0x000000000000000000000000987cc3ad31f9ea620452747cb43b282d280d1d39",
            "0x000000000000000000000000555350445e1f1ca212edb8cf397a383695ff7a36"
          ],
          "data": "0x",
          "blockHash": "0x605f37544c2710fb882e72516008739a80dd62f5f46af5b4c2919370feea9c03",
          "blockNumber": "0x1a97b89",
          "blockTimestamp": "0x686655f2",
          "transactionHash": "0x5a4dd3f232b599db69d90b22b126bfca06257bab365ec21b00b538a26173950b",
          "transactionIndex": "0x5",
          "logIndex": "0x2",
          "removed": false
        }
      ],
      "logsBloom": "0x00000004000000000200000000000000000040000000000000000000000000000000000000000000000000000000004000000000000000000000000000000000000040000000000000000000000400000000000000000000000000000002000000000000000000000000000000000000040000000000000400000000001000000000000000000000000000000000000000000000000000000000000000000000000000000000000000100000000000000000000000000000001000000000000000000000004000000000000000000000001000000000000100000000000000000000000000000000000000000000000000000000000000000000000000000000",
      "type": "0x2",
      "transactionHash": "0x5a4dd3f232b599db69d90b22b126bfca06257bab365ec21b00b538a26173950b",
      "transactionIndex": "0x5",
      "blockHash": "0x605f37544c2710fb882e72516008739a80dd62f5f46af5b4c2919370feea9c03",
      "blockNumber": "0x1a97b89",
      "gasUsed": "0xc97a",
      "effectiveGasPrice": "0xf42e2",
      "from": "0x555350445e1f1ca212edb8cf397a383695ff7a36",
      "to": "0x9896dfad4c53f43e97710c57dd3d914f47343203",
      "contractAddress": null,
      "l1BaseFeeScalar": "0x44d",
      "l1BlobBaseFee": "0x1",
      "l1BlobBaseFeeScalar": "0xa118b",
      "l1Fee": "0x45928358f",
      "l1GasPrice": "0x2526312e2",
      "l1GasUsed": "0x6a4"
    },
    {
      "status": "0x1",
      "cumulativeGasUsed": "0x2ef06b",
      "logs": [
        {
          "address": "0x9896dfad4c53f43e97710c57dd3d914f47343203",
          "topics": [
            "0x2f8788117e7eff1d82e926ec794901d17c78024a50270940304540a733656f0d",
            "0x3c11d16cbaffd01df69ce1c404f6340ee057498f5f00246190ea54220576a848",
            "0x000000000000000000000000987cc3ad31f9ea620452747cb43b282d280d1d39",
            "0x000000000000000000000000555350445e1f1ca212edb8cf397a383695ff7a36"
          ],
          "data": "0x",
          "blockHash": "0xe4e9752fdc1a20c611e648d43fe49254b94f4e83c8458af7a3b290aed766f0ce",
          "blockNumber": "0x1a97b89",
          "blockTimestamp": "0x686655f2",
          "transactionHash": "0x645f7dfa1fd5707536bd8bbe4092102c83f1abff42ce49a2417a85539872cc87",
          "transactionIndex": "0xa",
          "logIndex": "0x23",
          "removed": false
        }
      ],
      "logsBloom": "0x00000004000010000200000000000000000040000000000000000000000000000000000000000000000000000000000000000000000000000000000000000000000040000000000000000000000400000000000000000000000000000002000000000000000000000000000000000000040000000000000400000000000000000000000000000000000000000000000000000000000000000000000000000000000000000000000000100000000000000000000000004000001000000000000000040000004000000000000000000000000000000000000100000000000000000000000000000000000000000000000000000000000000000000000000000000",
      "type": "0x2",
      "transactionHash": "0x645f7dfa1fd5707536bd8bbe4092102c83f1abff42ce49a2417a85539872cc87",
      "transactionIndex": "0xa",
      "blockHash": "0xe4e9752fdc1a20c611e648d43fe49254b94f4e83c8458af7a3b290aed766f0ce",
      "blockNumber": "0x1a97b89",
      "gasUsed": "0xc96e",
      "effectiveGasPrice": "0xf42e2",
      "from": "0x555350445e1f1ca212edb8cf397a383695ff7a36",
      "to": "0x9896dfad4c53f43e97710c57dd3d914f47343203",
      "contractAddress": null,
      "l1BaseFeeScalar": "0x44d",
      "l1BlobBaseFee": "0x1",
      "l1BlobBaseFeeScalar": "0xa118b",
      "l1Fee": "0x45928358f",
      "l1GasPrice": "0x2526312e2",
      "l1GasUsed": "0x6a4"
    },
    {
      "status": "0x1",
      "cumulativeGasUsed": "0x2fb953",
      "logs": [
        {
          "address": "0xdf5ddd2b481eeb07a17fd2cd328ac2b87406b61b",
          "topics": [
            "0x2f8788117e7eff1d82e926ec794901d17c78024a50270940304540a733656f0d",
            "0x6349981c8f973aae243626fb13628338972392c22bccc395c05a43c57e7f2439",
            "0x000000000000000000000000987cc3ad31f9ea620452747cb43b282d280d1d39",
            "0x000000000000000000000000555350445e1f1ca212edb8cf397a383695ff7a36"
          ],
          "data": "0x",
          "blockHash": "0x605f37544c2710fb882e72516008739a80dd62f5f46af5b4c2919370feea9c03",
          "blockNumber": "0x1a97b89",
          "blockTimestamp": "0x686655f2",
          "transactionHash": "0xb44b82746bcf4e5364e1cff8080df070f2818e553ec7f7a76f3f1ebf8dc93d2e",
          "transactionIndex": "0xb",
          "logIndex": "0x24",
          "removed": false
        }
      ],
      "logsBloom": "0x00000004000000000200000000000000000000000000000100000000000000000000000000000000000000000000000000000000000000000000000000000000000000000000000000000200000400000000000000000000000000000002000000000000000000000000000000000000040000000000000000000000000000000000000000000000000000800000000000000000000000000000000000000000000000000000000000100000000000000000000000000001101000000000000000000000004000000010000000000000000000000000000100000000000000000000000000000000000000000000000000000000000000000000000000000000",
      "type": "0x2",
      "transactionHash": "0xb44b82746bcf4e5364e1cff8080df070f2818e553ec7f7a76f3f1ebf8dc93d2e",
      "transactionIndex": "0xb",
      "blockHash": "0x605f37544c2710fb882e72516008739a80dd62f5f46af5b4c2919370feea9c03",
      "blockNumber": "0x1a97b89",
      "gasUsed": "0xc8e8",
      "effectiveGasPrice": "0xf42e2",
      "from": "0x555350445e1f1ca212edb8cf397a383695ff7a36",
      "to": "0xdf5ddd2b481eeb07a17fd2cd328ac2b87406b61b",
      "contractAddress": null,
      "l1BaseFeeScalar": "0x44d",
      "l1BlobBaseFee": "0x1",
      "l1BlobBaseFeeScalar": "0xa118b",
      "l1Fee": "0x45928358f",
      "l1GasPrice": "0x2526312e2",
      "l1GasUsed": "0x6a4"
    }
  ],
  "libraries": [],
  "pending": [],
  "returns": {},
  "timestamp": 1751537169,
  "chain": 84532,
  "commit": "dd7c665"
}