{
  "transactions": [
    {
      "hash": "0x03789a430718554cdd3f8d0627600acb7ad6868adb81a746a02e7b0b99240603",
      "transactionType": "CALL",
      "contractName": null,
      "contractAddress": "0xba5ed099633d3b313e4d5f7bdc1305d3c28ba5ed",
      "function": "deployCreate2(bytes32,bytes)",
      "arguments": [
        "0x1945bc9ea702754305e8e5b6136f9c6d555e771d669a995ee2917c7e652a6da1",
        "0x60e060405234801561000f575f5ffd5b50604051610c31380380610c3183398101604081905261002e916100b7565b60015f556001600160a01b038316158061004f57506001600160a01b038216155b8061006157506001600160a01b038116155b1561007f5760405163d92e233d60e01b815260040160405180910390fd5b6001600160a01b0392831660805290821660a0521660c0526100f7565b80516001600160a01b03811681146100b2575f5ffd5b919050565b5f5f5f606084860312156100c9575f5ffd5b6100d28461009c565b92506100e06020850161009c565b91506100ee6040850161009c565b90509250925092565b60805160a05160c051610ad86101595f395f818161023d01526106bf01525f81816101bf01528181610444015261079101525f818161020a015281816102e501528181610396015281816105840152818161063c01526108840152610ad85ff3fe608060405260043610610092575f3560e01c806375ca208d1161005757806375ca208d1461018f578063d8585635146101ae578063e479ef9a146101f9578063eee242191461022c578063f35097221461025f575f5ffd5b80630e5542c0146100fe5780631da7f242146101265780635f9d1f031461014757806368c200571461015c578063727fca5f14610170575f5ffd5b366100fa5760405162461bcd60e51b815260206004820152602e60248201527f427269646765457363726f773a2044697265637420455448207472616e73666560448201526d1c9cc81b9bdd08185b1b1bddd95960921b606482015260840160405180910390fd5b5f5ffd5b348015610109575f5ffd5b5061011360035481565b6040519081526020015b60405180910390f35b348015610131575f5ffd5b50610145610140366004610972565b61028a565b005b348015610152575f5ffd5b5061011360015481565b348015610167575f5ffd5b50610113600181565b34801561017b575f5ffd5b5061014561018a366004610992565b610431565b34801561019a575f5ffd5b506101456101a93660046109d0565b61077e565b3480156101b9575f5ffd5b506101e17f000000000000000000000000000000000000000000000000000000000000000081565b6040516001600160a01b03909116815260200161011d565b348015610204575f5ffd5b506101e17f000000000000000000000000000000000000000000000000000000000000000081565b348015610237575f5ffd5b506101e17f000000000000000000000000000000000000000000000000000000000000000081565b34801561026a575f5ffd5b50610113610279366004610a15565b60026020525f908152604090205481565b61029261092f565b6001600160a01b0381166102b95760405163d92e233d60e01b815260040160405180910390fd5b5f600146036102cb57506001546102ce565b505f5b6040516370a0823160e01b81523060048201525f907f00000000000000000000000000000000000000000000000000000000000000006001600160a01b0316906370a0823190602401602060405180830381865afa158015610332573d5f5f3e3d5ffd5b505050506040513d601f19601f820116820180604052508101906103569190610a2c565b905081811115610423575f61036b8383610a57565b60405163a9059cbb60e01b81526001600160a01b038681166004830152602482018390529192505f917f0000000000000000000000000000000000000000000000000000000000000000169063a9059cbb906044016020604051808303815f875af11580156103dc573d5f5f3e3d5ffd5b505050506040513d601f19601f820116820180604052508101906104009190610a70565b905080610420576040516312171d8360e31b815260040160405180910390fd5b50505b505061042e60015f55565b50565b61043961092f565b336001600160a01b037f00000000000000000000000000000000000000000000000000000000000000001614610482576040516324fbc28560e21b815260040160405180910390fd5b6001600160a01b0385166104a95760405163d92e233d60e01b815260040160405180910390fd5b835f036104c95760405163162908e360e11b815260040160405180910390fd5b60014603610616575f838152600260205260409020548411156104ff576040516310da391960e21b815260040160405180910390fd5b836001541015610522576040516310da391960e21b815260040160405180910390fd5b5f838152600260205260408120805486929061053f908490610a57565b925050819055508360015f8282546105579190610a57565b909155505060405163a9059cbb60e01b81526001600160a01b038681166004830152602482018690525f917f00000000000000000000000000000000000000000000000000000000000000009091169063a9059cbb906044016020604051808303815f875af11580156105cc573d5f5f3e3d5ffd5b505050506040513d601f19601f820116820180604052508101906105f09190610a70565b905080610610576040516312171d8360e31b815260040160405180910390fd5b5061071f565b6040516340c10f1960e01b81526001600160a01b038681166004830152602482018690527f000000000000000000000000000000000000000000000000000000000000000016906340c10f19906044015f604051808303815f87803b15801561067d575f5ffd5b505af115801561068f573d5f5f3e3d5ffd5b505050508360035f8282546106a49190610a8f565b9091555050604051630575902360e31b8152600481018290527f00000000000000000000000000000000000000000000000000000000000000006001600160a01b031690632bac8118906024015f604051808303815f87803b158015610708575f5ffd5b505af115801561071a573d5f5f3e3d5ffd5b505050505b604080518581526020810184905290810182905283906001600160a01b038716907fc537e8b35b25787c1d115c680a55386846113bc6a1fd425ac89372ada0924960906060015b60405180910390a361077760015f55565b5050505050565b61078661092f565b336001600160a01b037f000000000000000000000000000000000000000000000000000000000000000016146107cf576040516324fbc28560e21b815260040160405180910390fd5b845f036107ef5760405163162908e360e11b815260040160405180910390fd5b60014603610835578460015f8282546108089190610a8f565b90915550505f848152600260205260408120805487929061082a908490610a8f565b909155506108e49050565b84600354101561085857604051632731e3c160e01b815260040160405180910390fd5b8460035f8282546108699190610a57565b9091555050604051630852cd8d60e31b8152600481018690527f00000000000000000000000000000000000000000000000000000000000000006001600160a01b0316906342966c68906024015f604051808303815f87803b1580156108cd575f5ffd5b505af11580156108df573d5f5f3e3d5ffd5b505050505b604080518681526020810185905290810183905284906001600160a01b038316907f6ea9ddd9345eddd832a547668989e36e0ba546c9321c8c2ec6b9c6c738568fbd90606001610766565b60025f540361095157604051633ee5aeb560e01b815260040160405180910390fd5b60025f55565b80356001600160a01b038116811461096d575f5ffd5b919050565b5f60208284031215610982575f5ffd5b61098b82610957565b9392505050565b5f5f5f5f5f60a086880312156109a6575f5ffd5b6109af86610957565b97602087013597506040870135966060810135965060800135945092505050565b5f5f5f5f5f60a086880312156109e4575f5ffd5b85359450602086013593506040860135925060608601359150610a0960808701610957565b90509295509295909350565b5f60208284031215610a25575f5ffd5b5035919050565b5f60208284031215610a3c575f5ffd5b5051919050565b634e487b7160e01b5f52601160045260245ffd5b81810381811115610a6a57610a6a610a43565b92915050565b5f60208284031215610a80575f5ffd5b8151801515811461098b575f5ffd5b80820180821115610a6a57610a6a610a4356fea264697066735822122089eccbf256626b49c68fad28ce8c4109f6d8d379497b066bec44b09b33873b5f64736f6c634300081d00330000000000000000000000009896dfad4c53f43e97710c57dd3d914f473432030000000000000000000000004de19965da7166eda659e3966d127cc47ab0aedc000000000000000000000000df5ddd2b481eeb07a17fd2cd328ac2b87406b61b"
      ],
      "transaction": {
        "from": "0x555350445e1f1ca212edb8cf397a383695ff7a36",
        "to": "0xba5ed099633d3b313e4d5f7bdc1305d3c28ba5ed",
        "gas": "0xe6c35",
        "value": "0x0",
        "input": "0x263076681945bc9ea702754305e8e5b6136f9c6d555e771d669a995ee2917c7e652a6da100000000000000000000000000000000000000000000000000000000000000400000000000000000000000000000000000000000000000000000000000000c9160e060405234801561000f575f5ffd5b50604051610c31380380610c3183398101604081905261002e916100b7565b60015f556001600160a01b038316158061004f57506001600160a01b038216155b8061006157506001600160a01b038116155b1561007f5760405163d92e233d60e01b815260040160405180910390fd5b6001600160a01b0392831660805290821660a0521660c0526100f7565b80516001600160a01b03811681146100b2575f5ffd5b919050565b5f5f5f606084860312156100c9575f5ffd5b6100d28461009c565b92506100e06020850161009c565b91506100ee6040850161009c565b90509250925092565b60805160a05160c051610ad86101595f395f818161023d01526106bf01525f81816101bf01528181610444015261079101525f818161020a015281816102e501528181610396015281816105840152818161063c01526108840152610ad85ff3fe608060405260043610610092575f3560e01c806375ca208d1161005757806375ca208d1461018f578063d8585635146101ae578063e479ef9a146101f9578063eee242191461022c578063f35097221461025f575f5ffd5b80630e5542c0146100fe5780631da7f242146101265780635f9d1f031461014757806368c200571461015c578063727fca5f14610170575f5ffd5b366100fa5760405162461bcd60e51b815260206004820152602e60248201527f427269646765457363726f773a2044697265637420455448207472616e73666560448201526d1c9cc81b9bdd08185b1b1bddd95960921b606482015260840160405180910390fd5b5f5ffd5b348015610109575f5ffd5b5061011360035481565b6040519081526020015b60405180910390f35b348015610131575f5ffd5b50610145610140366004610972565b61028a565b005b348015610152575f5ffd5b5061011360015481565b348015610167575f5ffd5b50610113600181565b34801561017b575f5ffd5b5061014561018a366004610992565b610431565b34801561019a575f5ffd5b506101456101a93660046109d0565b61077e565b3480156101b9575f5ffd5b506101e17f000000000000000000000000000000000000000000000000000000000000000081565b6040516001600160a01b03909116815260200161011d565b348015610204575f5ffd5b506101e17f000000000000000000000000000000000000000000000000000000000000000081565b348015610237575f5ffd5b506101e17f000000000000000000000000000000000000000000000000000000000000000081565b34801561026a575f5ffd5b50610113610279366004610a15565b60026020525f908152604090205481565b61029261092f565b6001600160a01b0381166102b95760405163d92e233d60e01b815260040160405180910390fd5b5f600146036102cb57506001546102ce565b505f5b6040516370a0823160e01b81523060048201525f907f00000000000000000000000000000000000000000000000000000000000000006001600160a01b0316906370a0823190602401602060405180830381865afa158015610332573d5f5f3e3d5ffd5b505050506040513d601f19601f820116820180604052508101906103569190610a2c565b905081811115610423575f61036b8383610a57565b60405163a9059cbb60e01b81526001600160a01b038681166004830152602482018390529192505f917f0000000000000000000000000000000000000000000000000000000000000000169063a9059cbb906044016020604051808303815f875af11580156103dc573d5f5f3e3d5ffd5b505050506040513d601f19601f820116820180604052508101906104009190610a70565b905080610420576040516312171d8360e31b815260040160405180910390fd5b50505b505061042e60015f55565b50565b61043961092f565b336001600160a01b037f00000000000000000000000000000000000000000000000000000000000000001614610482576040516324fbc28560e21b815260040160405180910390fd5b6001600160a01b0385166104a95760405163d92e233d60e01b815260040160405180910390fd5b835f036104c95760405163162908e360e11b815260040160405180910390fd5b60014603610616575f838152600260205260409020548411156104ff576040516310da391960e21b815260040160405180910390fd5b836001541015610522576040516310da391960e21b815260040160405180910390fd5b5f838152600260205260408120805486929061053f908490610a57565b925050819055508360015f8282546105579190610a57565b909155505060405163a9059cbb60e01b81526001600160a01b038681166004830152602482018690525f917f00000000000000000000000000000000000000000000000000000000000000009091169063a9059cbb906044016020604051808303815f875af11580156105cc573d5f5f3e3d5ffd5b505050506040513d601f19601f820116820180604052508101906105f09190610a70565b905080610610576040516312171d8360e31b815260040160405180910390fd5b5061071f565b6040516340c10f1960e01b81526001600160a01b038681166004830152602482018690527f000000000000000000000000000000000000000000000000000000000000000016906340c10f19906044015f604051808303815f87803b15801561067d575f5ffd5b505af115801561068f573d5f5f3e3d5ffd5b505050508360035f8282546106a49190610a8f565b9091555050604051630575902360e31b8152600481018290527f00000000000000000000000000000000000000000000000000000000000000006001600160a01b031690632bac8118906024015f604051808303815f87803b158015610708575f5ffd5b505af115801561071a573d5f5f3e3d5ffd5b505050505b604080518581526020810184905290810182905283906001600160a01b038716907fc537e8b35b25787c1d115c680a55386846113bc6a1fd425ac89372ada0924960906060015b60405180910390a361077760015f55565b5050505050565b61078661092f565b336001600160a01b037f000000000000000000000000000000000000000000000000000000000000000016146107cf576040516324fbc28560e21b815260040160405180910390fd5b845f036107ef5760405163162908e360e11b815260040160405180910390fd5b60014603610835578460015f8282546108089190610a8f565b90915550505f848152600260205260408120805487929061082a908490610a8f565b909155506108e49050565b84600354101561085857604051632731e3c160e01b815260040160405180910390fd5b8460035f8282546108699190610a57565b9091555050604051630852cd8d60e31b8152600481018690527f00000000000000000000000000000000000000000000000000000000000000006001600160a01b0316906342966c68906024015f604051808303815f87803b1580156108cd575f5ffd5b505af11580156108df573d5f5f3e3d5ffd5b505050505b604080518681526020810185905290810183905284906001600160a01b038316907f6ea9ddd9345eddd832a547668989e36e0ba546c9321c8c2ec6b9c6c738568fbd90606001610766565b60025f540361095157604051633ee5aeb560e01b815260040160405180910390fd5b60025f55565b80356001600160a01b038116811461096d575f5ffd5b919050565b5f60208284031215610982575f5ffd5b61098b82610957565b9392505050565b5f5f5f5f5f60a086880312156109a6575f5ffd5b6109af86610957565b97602087013597506040870135966060810135965060800135945092505050565b5f5f5f5f5f60a086880312156109e4575f5ffd5b85359450602086013593506040860135925060608601359150610a0960808701610957565b90509295509295909350565b5f60208284031215610a25575f5ffd5b5035919050565b5f60208284031215610a3c575f5ffd5b5051919050565b634e487b7160e01b5f52601160045260245ffd5b81810381811115610a6a57610a6a610a43565b92915050565b5f60208284031215610a80575f5ffd5b8151801515811461098b575f5ffd5b80820180821115610a6a57610a6a610a4356fea264697066735822122089eccbf256626b49c68fad28ce8c4109f6d8d379497b066bec44b09b33873b5f64736f6c634300081d00330000000000000000000000009896dfad4c53f43e97710c57dd3d914f473432030000000000000000000000004de19965da7166eda659e3966d127cc47ab0aedc000000000000000000000000df5ddd2b481eeb07a17fd2cd328ac2b87406b61b000000000000000000000000000000",
        "nonce": "0x36",
        "chainId": "0x14a34"
      },
      "additionalContracts": [
        {
          "transactionType": "CREATE2",
          "address": "0xa7d3fc46985f83b2af7b35ad8005a25e895ba6b4",
          "initCode": "0x60e060405234801561000f575f5ffd5b50604051610c31380380610c3183398101604081905261002e916100b7565b60015f556001600160a01b038316158061004f57506001600160a01b038216155b8061006157506001600160a01b038116155b1561007f5760405163d92e233d60e01b815260040160405180910390fd5b6001600160a01b0392831660805290821660a0521660c0526100f7565b80516001600160a01b03811681146100b2575f5ffd5b919050565b5f5f5f606084860312156100c9575f5ffd5b6100d28461009c565b92506100e06020850161009c565b91506100ee6040850161009c565b90509250925092565b60805160a05160c051610ad86101595f395f818161023d01526106bf01525f81816101bf01528181610444015261079101525f818161020a015281816102e501528181610396015281816105840152818161063c01526108840152610ad85ff3fe608060405260043610610092575f3560e01c806375ca208d1161005757806375ca208d1461018f578063d8585635146101ae578063e479ef9a146101f9578063eee242191461022c578063f35097221461025f575f5ffd5b80630e5542c0146100fe5780631da7f242146101265780635f9d1f031461014757806368c200571461015c578063727fca5f14610170575f5ffd5b366100fa5760405162461bcd60e51b815260206004820152602e60248201527f427269646765457363726f773a2044697265637420455448207472616e73666560448201526d1c9cc81b9bdd08185b1b1bddd95960921b606482015260840160405180910390fd5b5f5ffd5b348015610109575f5ffd5b5061011360035481565b6040519081526020015b60405180910390f35b348015610131575f5ffd5b50610145610140366004610972565b61028a565b005b348015610152575f5ffd5b5061011360015481565b348015610167575f5ffd5b50610113600181565b34801561017b575f5ffd5b5061014561018a366004610992565b610431565b34801561019a575f5ffd5b506101456101a93660046109d0565b61077e565b3480156101b9575f5ffd5b506101e17f000000000000000000000000000000000000000000000000000000000000000081565b6040516001600160a01b03909116815260200161011d565b348015610204575f5ffd5b506101e17f000000000000000000000000000000000000000000000000000000000000000081565b348015610237575f5ffd5b506101e17f000000000000000000000000000000000000000000000000000000000000000081565b34801561026a575f5ffd5b50610113610279366004610a15565b60026020525f908152604090205481565b61029261092f565b6001600160a01b0381166102b95760405163d92e233d60e01b815260040160405180910390fd5b5f600146036102cb57506001546102ce565b505f5b6040516370a0823160e01b81523060048201525f907f00000000000000000000000000000000000000000000000000000000000000006001600160a01b0316906370a0823190602401602060405180830381865afa158015610332573d5f5f3e3d5ffd5b505050506040513d601f19601f820116820180604052508101906103569190610a2c565b905081811115610423575f61036b8383610a57565b60405163a9059cbb60e01b81526001600160a01b038681166004830152602482018390529192505f917f0000000000000000000000000000000000000000000000000000000000000000169063a9059cbb906044016020604051808303815f875af11580156103dc573d5f5f3e3d5ffd5b505050506040513d601f19601f820116820180604052508101906104009190610a70565b905080610420576040516312171d8360e31b815260040160405180910390fd5b50505b505061042e60015f55565b50565b61043961092f565b336001600160a01b037f00000000000000000000000000000000000000000000000000000000000000001614610482576040516324fbc28560e21b815260040160405180910390fd5b6001600160a01b0385166104a95760405163d92e233d60e01b815260040160405180910390fd5b835f036104c95760405163162908e360e11b815260040160405180910390fd5b60014603610616575f838152600260205260409020548411156104ff576040516310da391960e21b815260040160405180910390fd5b836001541015610522576040516310da391960e21b815260040160405180910390fd5b5f838152600260205260408120805486929061053f908490610a57565b925050819055508360015f8282546105579190610a57565b909155505060405163a9059cbb60e01b81526001600160a01b038681166004830152602482018690525f917f00000000000000000000000000000000000000000000000000000000000000009091169063a9059cbb906044016020604051808303815f875af11580156105cc573d5f5f3e3d5ffd5b505050506040513d601f19601f820116820180604052508101906105f09190610a70565b905080610610576040516312171d8360e31b815260040160405180910390fd5b5061071f565b6040516340c10f1960e01b81526001600160a01b038681166004830152602482018690527f000000000000000000000000000000000000000000000000000000000000000016906340c10f19906044015f604051808303815f87803b15801561067d575f5ffd5b505af115801561068f573d5f5f3e3d5ffd5b505050508360035f8282546106a49190610a8f565b9091555050604051630575902360e31b8152600481018290527f00000000000000000000000000000000000000000000000000000000000000006001600160a01b031690632bac8118906024015f604051808303815f87803b158015610708575f5ffd5b505af115801561071a573d5f5f3e3d5ffd5b505050505b604080518581526020810184905290810182905283906001600160a01b038716907fc537e8b35b25787c1d115c680a55386846113bc6a1fd425ac89372ada0924960906060015b60405180910390a361077760015f55565b5050505050565b61078661092f565b336001600160a01b037f000000000000000000000000000000000000000000000000000000000000000016146107cf576040516324fbc28560e21b815260040160405180910390fd5b845f036107ef5760405163162908e360e11b815260040160405180910390fd5b60014603610835578460015f8282546108089190610a8f565b90915550505f848152600260205260408120805487929061082a908490610a8f565b909155506108e49050565b84600354101561085857604051632731e3c160e01b815260040160405180910390fd5b8460035f8282546108699190610a57565b9091555050604051630852cd8d60e31b8152600481018690527f00000000000000000000000000000000000000000000000000000000000000006001600160a01b0316906342966c68906024015f604051808303815f87803b1580156108cd575f5ffd5b505af11580156108df573d5f5f3e3d5ffd5b505050505b604080518681526020810185905290810183905284906001600160a01b038316907f6ea9ddd9345eddd832a547668989e36e0ba546c9321c8c2ec6b9c6c738568fbd90606001610766565b60025f540361095157604051633ee5aeb560e01b815260040160405180910390fd5b60025f55565b80356001600160a01b038116811461096d575f5ffd5b919050565b5f60208284031215610982575f5ffd5b61098b82610957565b9392505050565b5f5f5f5f5f60a086880312156109a6575f5ffd5b6109af86610957565b97602087013597506040870135966060810135965060800135945092505050565b5f5f5f5f5f60a086880312156109e4575f5ffd5b85359450602086013593506040860135925060608601359150610a0960808701610957565b90509295509295909350565b5f60208284031215610a25575f5ffd5b5035919050565b5f60208284031215610a3c575f5ffd5b5051919050565b634e487b7160e01b5f52601160045260245ffd5b81810381811115610a6a57610a6a610a43565b92915050565b5f60208284031215610a80575f5ffd5b8151801515811461098b575f5ffd5b80820180821115610a6a57610a6a610a4356fea264697066735822122089eccbf256626b49c68fad28ce8c4109f6d8d379497b066bec44b09b33873b5f64736f6c634300081d00330000000000000000000000009896dfad4c53f43e97710c57dd3d914f473432030000000000000000000000004de19965da7166eda659e3966d127cc47ab0aedc000000000000000000000000df5ddd2b481eeb07a17fd2cd328ac2b87406b61b"
        }
      ],
      "isFixedGasLimit": false
    },
    {
      "hash": "0x53087a78e2e4c99ccf682e4fcd510ba367e2e54c7ac03e338d01c186193baac6",
      "transactionType": "CALL",
      "contractName": null,
      "contractAddress": "0x4de19965da7166eda659e3966d127cc47ab0aedc",
      "function": "setBridgeEscrowAddress(address)",
      "arguments": [
        "0xa7D3Fc46985F83b2AF7B35AD8005A25E895bA6b4"
      ],
      "transaction": {
        "from": "0x555350445e1f1ca212edb8cf397a383695ff7a36",
        "to": "0x4de19965da7166eda659e3966d127cc47ab0aedc",
        "gas": "0x1034f",
        "value": "0x0",
        "input": "0xb6501f05000000000000000000000000a7d3fc46985f83b2af7b35ad8005a25e895ba6b4",
        "nonce": "0x37",
        "chainId": "0x14a34"
      },
      "additionalContracts": [],
      "isFixedGasLimit": false
    },
    {
      "hash": "0x8a14fa4af7c50a10c0b4c8f3fcd65a1610c95db9102cf6847df5712478bb2829",
      "transactionType": "CALL",
      "contractName": null,
      "contractAddress": "0x9896dfad4c53f43e97710c57dd3d914f47343203",
      "function": "grantRole(bytes32,address)",
      "arguments": [
        "0x9f2df0fed2c77648de5860a4cc508cd0818c85b8b8a1ab4ceeef8d981c8956a6",
        "0xa7D3Fc46985F83b2AF7B35AD8005A25E895bA6b4"
      ],
      "transaction": {
        "from": "0x555350445e1f1ca212edb8cf397a383695ff7a36",
        "to": "0x9896dfad4c53f43e97710c57dd3d914f47343203",
        "gas": "0x126a8",
        "value": "0x0",
        "input": "0x2f2ff15d9f2df0fed2c77648de5860a4cc508cd0818c85b8b8a1ab4ceeef8d981c8956a6000000000000000000000000a7d3fc46985f83b2af7b35ad8005a25e895ba6b4",
        "nonce": "0x38",
        "chainId": "0x14a34"
      },
      "additionalContracts": [],
      "isFixedGasLimit": false
    },
    {
      "hash": "0x79b149976e579b8ad681d0ab3c7ef8463581bebf49ef235dc8e311d90f2397ca",
      "transactionType": "CALL",
      "contractName": null,
      "contractAddress": "0x9896dfad4c53f43e97710c57dd3d914f47343203",
      "function": "grantRole(bytes32,address)",
      "arguments": [
        "0x3c11d16cbaffd01df69ce1c404f6340ee057498f5f00246190ea54220576a848",
        "0xa7D3Fc46985F83b2AF7B35AD8005A25E895bA6b4"
      ],
      "transaction": {
        "from": "0x555350445e1f1ca212edb8cf397a383695ff7a36",
        "to": "0x9896dfad4c53f43e97710c57dd3d914f47343203",
        "gas": "0x11638",
        "value": "0x0",
        "input": "0x2f2ff15d3c11d16cbaffd01df69ce1c404f6340ee057498f5f00246190ea54220576a848000000000000000000000000a7d3fc46985f83b2af7b35ad8005a25e895ba6b4",
        "nonce": "0x39",
        "chainId": "0x14a34"
      },
      "additionalContracts": [],
      "isFixedGasLimit": false
    },
    {
      "hash": "0x92ff0b86b9b947ac6e86765a552fdd7cfc7821618c4f72bfa4c31420bf2bd0b9",
      "transactionType": "CALL",
      "contractName": "PoolSharesConversionRate",
      "contractAddress": "0xdf5ddd2b481eeb07a17fd2cd328ac2b87406b61b",
      "function": "grantRole(bytes32,address)",
      "arguments": [
        "0x6349981c8f973aae243626fb13628338972392c22bccc395c05a43c57e7f2439",
        "0xa7D3Fc46985F83b2AF7B35AD8005A25E895bA6b4"
      ],
      "transaction": {
        "from": "0x555350445e1f1ca212edb8cf397a383695ff7a36",
        "to": "0xdf5ddd2b481eeb07a17fd2cd328ac2b87406b61b",
        "gas": "0x1157f",
        "value": "0x0",
        "input": "0x2f2ff15d6349981c8f973aae243626fb13628338972392c22bccc395c05a43c57e7f2439000000000000000000000000a7d3fc46985f83b2af7b35ad8005a25e895ba6b4",
        "nonce": "0x3a",
        "chainId": "0x14a34"
      },
      "additionalContracts": [],
      "isFixedGasLimit": false
    }
  ],
  "receipts": [
    {
      "status": "0x1",
      "cumulativeGasUsed": "0x17f3eb",
      "logs": [
        {
          "address": "0xba5ed099633d3b313e4d5f7bdc1305d3c28ba5ed",
          "topics": [
            "0xb8fda7e00c6b06a2b54e58521bc5894fee35f1090e5a3bb6390bfe2b98b497f7",
            "0x000000000000000000000000a7d3fc46985f83b2af7b35ad8005a25e895ba6b4",
            "0x937108f9f666f9429c4240d36b7efed4a68e6c06ca374ceff52bec74e55cc135"
          ],
          "data": "0x",
          "blockHash": "0x6bac7ec0f64670f7372d9f8e08ae9e66fa1b729e3aea21c4b37b09dd1e6981e2",
          "blockNumber": "0x1b60f59",
          "blockTimestamp": "0x687f7d92",
          "transactionHash": "0x03789a430718554cdd3f8d0627600acb7ad6868adb81a746a02e7b0b99240603",
          "transactionIndex": "0x3",
          "logIndex": "0x2c",
          "removed": false
        }
      ],
      "logsBloom": "0x00020000000000000000000000000000000040000000000000000000000000000000000000000000004000000000000000000000000000000002000000000008000000000000000000000000000000000000000000000000000000000000000000000000000000000000000000000000000000000000000000000000000000000000000000000000000000000000100000000000000000000000000000000000000080000000200000000000000000000000000000000000000000000000000000000000000000000200000000000000000000002000000100000000000000000000000000000000000000000000000000000000000000000000000000020000",
      "type": "0x2",
      "transactionHash": "0x03789a430718554cdd3f8d0627600acb7ad6868adb81a746a02e7b0b99240603",
      "transactionIndex": "0x3",
      "blockHash": "0x6bac7ec0f64670f7372d9f8e08ae9e66fa1b729e3aea21c4b37b09dd1e6981e2",
      "blockNumber": "0x1b60f59",
      "gasUsed": "0xa7118",
      "effectiveGasPrice": "0xf4283",
      "from": "0x555350445e1f1ca212edb8cf397a383695ff7a36",
      "to": "0xba5ed099633d3b313e4d5f7bdc1305d3c28ba5ed",
      "contractAddress": null,
      "l1BaseFeeScalar": "0x44d",
      "l1BlobBaseFee": "0x1",
      "l1BlobBaseFeeScalar": "0xa118b",
      "l1Fee": "0x8aec4c88",
      "l1GasPrice": "0x489f1c0",
      "l1GasUsed": "0x6c97"
    },
    {
      "status": "0x1",
      "cumulativeGasUsed": "0x27f2df",
      "logs": [
        {
          "address": "0x4de19965da7166eda659e3966d127cc47ab0aedc",
          "topics": [
            "0x0842e0125c5dd8fb48b1a967ae420e8954c9ccb1f6a29f83ff9da9204895ff1a",
            "0x0000000000000000000000000000000000000000000000000000000000000000",
            "0x000000000000000000000000a7d3fc46985f83b2af7b35ad8005a25e895ba6b4"
          ],
          "data": "0x",
          "blockHash": "0x6bac7ec0f64670f7372d9f8e08ae9e66fa1b729e3aea21c4b37b09dd1e6981e2",
          "blockNumber": "0x1b60f59",
          "blockTimestamp": "0x687f7d92",
          "transactionHash": "0x53087a78e2e4c99ccf682e4fcd510ba367e2e54c7ac03e338d01c186193baac6",
          "transactionIndex": "0x7",
          "logIndex": "0x5a",
          "removed": false
        }
      ],
      "logsBloom": "0x00000000000000000000000000000000000040000000000000000000000000000000000000000000000000000000000000000000000000000000000100000000000000000000000000000000000000000000000000000000000000000000000000000100020000000000000000000800000000000000000000000000000000000000000000000000000000000000000000000000010000000000000000000000000000000000200000000000000000000000000000000000000000000000000000000000000010000000000000000000000000000000000000000000000020000000001000000000000040000000000000000000000000000000000000020000",
      "type": "0x2",
      "transactionHash": "0x53087a78e2e4c99ccf682e4fcd510ba367e2e54c7ac03e338d01c186193baac6",
      "transactionIndex": "0x7",
      "blockHash": "0x6bac7ec0f64670f7372d9f8e08ae9e66fa1b729e3aea21c4b37b09dd1e6981e2",
      "blockNumber": "0x1b60f59",
      "gasUsed": "0xbbbd",
      "effectiveGasPrice": "0xf4283",
      "from": "0x555350445e1f1ca212edb8cf397a383695ff7a36",
      "to": "0x4de19965da7166eda659e3966d127cc47ab0aedc",
      "contractAddress": null,
      "l1BaseFeeScalar": "0x44d",
      "l1BlobBaseFee": "0x1",
      "l1BlobBaseFeeScalar": "0xa118b",
      "l1Fee": "0x7fee1d4",
      "l1GasPrice": "0x489f1c0",
      "l1GasUsed": "0x640"
    },
    {
      "status": "0x1",
      "cumulativeGasUsed": "0x38fb23",
      "logs": [
        {
          "address": "0x9896dfad4c53f43e97710c57dd3d914f47343203",
          "topics": [
            "0x2f8788117e7eff1d82e926ec794901d17c78024a50270940304540a733656f0d",
            "0x9f2df0fed2c77648de5860a4cc508cd0818c85b8b8a1ab4ceeef8d981c8956a6",
            "0x000000000000000000000000a7d3fc46985f83b2af7b35ad8005a25e895ba6b4",
            "0x000000000000000000000000555350445e1f1ca212edb8cf397a383695ff7a36"
          ],
          "data": "0x",
          "blockHash": "0x6bac7ec0f64670f7372d9f8e08ae9e66fa1b729e3aea21c4b37b09dd1e6981e2",
          "blockNumber": "0x1b60f59",
          "blockTimestamp": "0x687f7d92",
          "transactionHash": "0x8a14fa4af7c50a10c0b4c8f3fcd65a1610c95db9102cf6847df5712478bb2829",
          "transactionIndex": "0xa",
          "logIndex": "0x60",
          "removed": false
        }
      ],
      "logsBloom": "0x00000004000000000200000000000000000040000000000000000000000000000000000000000000000000000000004000000000000000000000000000000000000040000000000000000000000400000000000000000000000000000000000000000000000000000000000000000000000000000000000400000000001000000000000000000000000000000000000000000000000000000000000000000000000000000000200000100000000000000000000000000000001000000000000000000000000000000000000000000000001000000000000100000000000000000000000000000000000000000000000000000000000000000000000000020000",
      "type": "0x2",
      "transactionHash": "0x8a14fa4af7c50a10c0b4c8f3fcd65a1610c95db9102cf6847df5712478bb2829",
      "transactionIndex": "0xa",
      "blockHash": "0x6bac7ec0f64670f7372d9f8e08ae9e66fa1b729e3aea21c4b37b09dd1e6981e2",
      "blockNumber": "0x1b60f59",
      "gasUsed": "0xc97a",
      "effectiveGasPrice": "0xf4283",
      "from": "0x555350445e1f1ca212edb8cf397a383695ff7a36",
      "to": "0x9896dfad4c53f43e97710c57dd3d914f47343203",
      "contractAddress": null,
      "l1BaseFeeScalar": "0x44d",
      "l1BlobBaseFee": "0x1",
      "l1BlobBaseFeeScalar": "0xa118b",
      "l1Fee": "0x88011ae",
      "l1GasPrice": "0x489f1c0",
      "l1GasUsed": "0x6a4"
    },
    {
      "status": "0x1",
      "cumulativeGasUsed": "0x39c491",
      "logs": [
        {
          "address": "0x9896dfad4c53f43e97710c57dd3d914f47343203",
          "topics": [
            "0x2f8788117e7eff1d82e926ec794901d17c78024a50270940304540a733656f0d",
            "0x3c11d16cbaffd01df69ce1c404f6340ee057498f5f00246190ea54220576a848",
            "0x000000000000000000000000a7d3fc46985f83b2af7b35ad8005a25e895ba6b4",
            "0x000000000000000000000000555350445e1f1ca212edb8cf397a383695ff7a36"
          ],
          "data": "0x",
          "blockHash": "0x6bac7ec0f64670f7372d9f8e08ae9e66fa1b729e3aea21c4b37b09dd1e6981e2",
          "blockNumber": "0x1b60f59",
          "blockTimestamp": "0x687f7d92",
          "transactionHash": "0x79b149976e579b8ad681d0ab3c7ef8463581bebf49ef235dc8e311d90f2397ca",
          "transactionIndex": "0xb",
          "logIndex": "0x61",
          "removed": false
        }
      ],
      "logsBloom": "0x00000004000010000200000000000000000040000000000000000000000000000000000000000000000000000000000000000000000000000000000000000000000040000000000000000000000400000000000000000000000000000000000000000000000000000000000000000000000000000000000400000000000000000000000000000000000000000000000000000000000000000000000000000000000000000000200000100000000000000000000000004000001000000000000000040000000000000000000000000000000000000000000100000000000000000000000000000000000000000000000000000000000000000000000000020000",
      "type": "0x2",
      "transactionHash": "0x79b149976e579b8ad681d0ab3c7ef8463581bebf49ef235dc8e311d90f2397ca",
      "transactionIndex": "0xb",
      "blockHash": "0x6bac7ec0f64670f7372d9f8e08ae9e66fa1b729e3aea21c4b37b09dd1e6981e2",
      "blockNumber": "0x1b60f59",
      "gasUsed": "0xc96e",
      "effectiveGasPrice": "0xf4283",
      "from": "0x555350445e1f1ca212edb8cf397a383695ff7a36",
      "to": "0x9896dfad4c53f43e97710c57dd3d914f47343203",
      "contractAddress": null,
      "l1BaseFeeScalar": "0x44d",
      "l1BlobBaseFee": "0x1",
      "l1BlobBaseFeeScalar": "0xa118b",
      "l1Fee": "0x88011ae",
      "l1GasPrice": "0x489f1c0",
      "l1GasUsed": "0x6a4"
    },
    {
      "status": "0x1",
      "cumulativeGasUsed": "0x3a8d79",
      "logs": [
        {
          "address": "0xdf5ddd2b481eeb07a17fd2cd328ac2b87406b61b",
          "topics": [
            "0x2f8788117e7eff1d82e926ec794901d17c78024a50270940304540a733656f0d",
            "0x6349981c8f973aae243626fb13628338972392c22bccc395c05a43c57e7f2439",
            "0x000000000000000000000000a7d3fc46985f83b2af7b35ad8005a25e895ba6b4",
            "0x000000000000000000000000555350445e1f1ca212edb8cf397a383695ff7a36"
          ],
          "data": "0x",
          "blockHash": "0x6bac7ec0f64670f7372d9f8e08ae9e66fa1b729e3aea21c4b37b09dd1e6981e2",
          "blockNumber": "0x1b60f59",
          "blockTimestamp": "0x687f7d92",
          "transactionHash": "0x92ff0b86b9b947ac6e86765a552fdd7cfc7821618c4f72bfa4c31420bf2bd0b9",
          "transactionIndex": "0xc",
          "logIndex": "0x62",
          "removed": false
        }
      ],
      "logsBloom": "0x00000004000000000200000000000000000040000000000100000000000000000000000000000000000000000000000000000000000000000000000000000000000000000000000000000200000400000000000000000000000000000000000000000000000000000000000000000000000000000000000000000000000000000000000000000000000000800000000000000000000000000000000000000000000000000000200000100000000000000000000000000001101000000000000000000000000000000010000000000000000000000000000100000000000000000000000000000000000000000000000000000000000000000000000000020000",
      "type": "0x2",
      "transactionHash": "0x92ff0b86b9b947ac6e86765a552fdd7cfc7821618c4f72bfa4c31420bf2bd0b9",
      "transactionIndex": "0xc",
      "blockHash": "0x6bac7ec0f64670f7372d9f8e08ae9e66fa1b729e3aea21c4b37b09dd1e6981e2",
      "blockNumber": "0x1b60f59",
      "gasUsed": "0xc8e8",
      "effectiveGasPrice": "0xf4283",
      "from": "0x555350445e1f1ca212edb8cf397a383695ff7a36",
      "to": "0xdf5ddd2b481eeb07a17fd2cd328ac2b87406b61b",
      "contractAddress": null,
      "l1BaseFeeScalar": "0x44d",
      "l1BlobBaseFee": "0x1",
      "l1BlobBaseFeeScalar": "0xa118b",
      "l1Fee": "0x88011ae",
      "l1GasPrice": "0x489f1c0",
      "l1GasUsed": "0x6a4"
    }
  ],
  "libraries": [],
  "pending": [],
  "returns": {},
  "timestamp": 1753185712,
  "chain": 84532,
  "commit": "fa66977"
}