{
  "transactions": [
    {
      "hash": "0x606bf68093797dc8554ccd27f6cb5e9cb446d35600a2adea2ec1a1c775101fa7",
      "transactionType": "CALL",
      "contractName": "cUSPDToken",
      "contractAddress": "0xa915a5bb7f033bc077de3849e0d981d9783612b3",
      "function": "grantRole(bytes32,address)",
      "arguments": [
        "0x3c11d16cbaffd01df69ce1c404f6340ee057498f5f00246190ea54220576a848",
        "0xe67b12924FC374328ad9af95183504aA4dd291F2"
      ],
      "transaction": {
        "from": "0x555350445e1f1ca212edb8cf397a383695ff7a36",
        "to": "0xa915a5bb7f033bc077de3849e0d981d9783612b3",
        "gas": "0x9e39",
        "value": "0x0",
        "input": "0x2f2ff15d3c11d16cbaffd01df69ce1c404f6340ee057498f5f00246190ea54220576a848000000000000000000000000e67b12924fc374328ad9af95183504aa4dd291f2",
        "nonce": "0x85",
        "chainId": "0xaa36a7"
      },
      "additionalContracts": [],
      "isFixedGasLimit": false
    },
    {
      "hash": "0xec76d688568c1857ae3f5c9a0f988272cdcd8f5adf1a2ea7b12245054a073e1f",
      "transactionType": "CALL",
      "contractName": "cUSPDToken",
      "contractAddress": "0xa915a5bb7f033bc077de3849e0d981d9783612b3",
      "function": "grantRole(bytes32,address)",
      "arguments": [
        "0x4702cfe9ce425da868e47050b25fe42f288c81eb74d83efc6cfaa2d9b6eb45c2",
        "0xFa799d0281960d82E8729a752cA59f0F0F2A89e7"
      ],
      "transaction": {
        "from": "0x555350445e1f1ca212edb8cf397a383695ff7a36",
        "to": "0xa915a5bb7f033bc077de3849e0d981d9783612b3",
        "gas": "0xa79a",
        "value": "0x0",
        "input": "0x2f2ff15d4702cfe9ce425da868e47050b25fe42f288c81eb74d83efc6cfaa2d9b6eb45c2000000000000000000000000fa799d0281960d82e8729a752ca59f0f0f2a89e7",
        "nonce": "0x86",
        "chainId": "0xaa36a7"
      },
      "additionalContracts": [],
      "isFixedGasLimit": false
    },
    {
      "hash": "0xbf7a3d1cb3c86216151ab4b1df1f5b1c7919704d77251262724e52fb21d616fe",
      "transactionType": "CALL",
      "contractName": null,
      "contractAddress": "0xaf0f430d38984f03c35a8e93776eea00d89ddc17",
      "function": "grantRole(bytes32,address)",
      "arguments": [
        "0x73e573f9566d61418a34d5de3ff49360f9c51fec37f7486551670290f6285dab",
        "0xe67b12924FC374328ad9af95183504aA4dd291F2"
      ],
      "transaction": {
        "from": "0x555350445e1f1ca212edb8cf397a383695ff7a36",
        "to": "0xaf0f430d38984f03c35a8e93776eea00d89ddc17",
        "gas": "0xb93d",
        "value": "0x0",
        "input": "0x2f2ff15d73e573f9566d61418a34d5de3ff49360f9c51fec37f7486551670290f6285dab000000000000000000000000e67b12924fc374328ad9af95183504aa4dd291f2",
        "nonce": "0x87",
        "chainId": "0xaa36a7"
      },
      "additionalContracts": [],
      "isFixedGasLimit": false
    }
  ],
  "receipts": [
    {
      "status": "0x1",
      "cumulativeGasUsed": "0x1211262",
      "logs": [],
      "logsBloom": "0x00000000000000000000000000000000000000000000000000000000000000000000000000000000000000000000000000000000000000000000000000000000000000000000000000000000000000000000000000000000000000000000000000000000000000000000000000000000000000000000000000000000000000000000000000000000000000000000000000000000000000000000000000000000000000000000000000000000000000000000000000000000000000000000000000000000000000000000000000000000000000000000000000000000000000000000000000000000000000000000000000000000000000000000000000000000",
      "type": "0x2",
      "transactionHash": "0x606bf68093797dc8554ccd27f6cb5e9cb446d35600a2adea2ec1a1c775101fa7",
      "transactionIndex": "0x60",
      "blockHash": "0xf23542466f86b918eadc52bfce866e8c08a1bd907255cfbfd3c3c408dd3f1eb9",
      "blockNumber": "0x89db89",
      "gasUsed": "0x728e",
      "effectiveGasPrice": "0x231c7c8",
      "from": "0x555350445e1f1ca212edb8cf397a383695ff7a36",
      "to": "0xa915a5bb7f033bc077de3849e0d981d9783612b3",
      "contractAddress": null
    },
    {
      "status": "0x1",
      "cumulativeGasUsed": "0x12184fc",
      "logs": [],
      "logsBloom": "0x00000000000000000000000000000000000000000000000000000000000000000000000000000000000000000000000000000000000000000000000000000000000000000000000000000000000000000000000000000000000000000000000000000000000000000000000000000000000000000000000000000000000000000000000000000000000000000000000000000000000000000000000000000000000000000000000000000000000000000000000000000000000000000000000000000000000000000000000000000000000000000000000000000000000000000000000000000000000000000000000000000000000000000000000000000000",
      "type": "0x2",
      "transactionHash": "0xec76d688568c1857ae3f5c9a0f988272cdcd8f5adf1a2ea7b12245054a073e1f",
      "transactionIndex": "0x61",
      "blockHash": "0xf23542466f86b918eadc52bfce866e8c08a1bd907255cfbfd3c3c408dd3f1eb9",
      "blockNumber": "0x89db89",
      "gasUsed": "0x729a",
      "effectiveGasPrice": "0x231c7c8",
      "from": "0x555350445e1f1ca212edb8cf397a383695ff7a36",
      "to": "0xa915a5bb7f033bc077de3849e0d981d9783612b3",
      "contractAddress": null
    },
    {
      "status": "0x1",
      "cumulativeGasUsed": "0x1220b19",
      "logs": [],
      "logsBloom": "0x00000000000000000000000000000000000000000000000000000000000000000000000000000000000000000000000000000000000000000000000000000000000000000000000000000000000000000000000000000000000000000000000000000000000000000000000000000000000000000000000000000000000000000000000000000000000000000000000000000000000000000000000000000000000000000000000000000000000000000000000000000000000000000000000000000000000000000000000000000000000000000000000000000000000000000000000000000000000000000000000000000000000000000000000000000000",
      "type": "0x2",
      "transactionHash": "0xbf7a3d1cb3c86216151ab4b1df1f5b1c7919704d77251262724e52fb21d616fe",
      "transactionIndex": "0x62",
      "blockHash": "0xf23542466f86b918eadc52bfce866e8c08a1bd907255cfbfd3c3c408dd3f1eb9",
      "blockNumber": "0x89db89",
      "gasUsed": "0x861d",
      "effectiveGasPrice": "0x231c7c8",
      "from": "0x555350445e1f1ca212edb8cf397a383695ff7a36",
      "to": "0xaf0f430d38984f03c35a8e93776eea00d89ddc17",
      "contractAddress": null
    }
  ],
  "libraries": [],
  "pending": [],
  "returns": {},
  "timestamp": 1755805081,
  "chain": 11155111,
  "commit": "477e82f"
}