{
  "transactions": [
    {
      "hash": "0x71455f05fa386dee4f448eb284a47632349b29f45bdd2fd9464fff4140e6ffb6",
      "transactionType": "CALL",
      "contractName": null,
      "contractAddress": "0xba5ed099633d3b313e4d5f7bdc1305d3c28ba5ed",
      "function": "deployCreate2(bytes32,bytes)",
      "arguments": [
        "0xf7d2822d870288365cff1b75f7181035b99a4bbfcb232cde6b28e90dd7083c70",
        "0x60e060405234801561000f575f5ffd5b50604051610c46380380610c4683398101604081905261002e916100b7565b60015f556001600160a01b038316158061004f57506001600160a01b038216155b8061006157506001600160a01b038116155b1561007f5760405163d92e233d60e01b815260040160405180910390fd5b6001600160a01b0392831660805290821660a0521660c0526100f7565b80516001600160a01b03811681146100b2575f5ffd5b919050565b5f5f5f606084860312156100c9575f5ffd5b6100d28461009c565b92506100e06020850161009c565b91506100ee6040850161009c565b90509250925092565b60805160a05160c051610aed6101595f395f818161024801526106fc01525f81816101ca0152818161047301526107ce01525f818161021501528181610314015281816103c5015281816105c10152818161067901526108cf0152610aed5ff3fe60806040526004361061009d575f3560e01c806375ca208d1161006257806375ca208d1461019a578063d8585635146101b9578063e479ef9a14610204578063eee2421914610237578063f35097221461026a578063f7b89c1c14610295575f5ffd5b80630e5542c0146101095780631da7f242146101315780635f9d1f031461015257806368c2005714610167578063727fca5f1461017b575f5ffd5b366101055760405162461bcd60e51b815260206004820152602e60248201527f427269646765457363726f773a2044697265637420455448207472616e73666560448201526d1c9cc81b9bdd08185b1b1bddd95960921b606482015260840160405180910390fd5b5f5ffd5b348015610114575f5ffd5b5061011e60035481565b6040519081526020015b60405180910390f35b34801561013c575f5ffd5b5061015061014b3660046109bd565b6102ab565b005b34801561015d575f5ffd5b5061011e60015481565b348015610172575f5ffd5b5061011e600181565b348015610186575f5ffd5b506101506101953660046109dd565b610460565b3480156101a5575f5ffd5b506101506101b4366004610a1b565b6107bb565b3480156101c4575f5ffd5b506101ec7f000000000000000000000000000000000000000000000000000000000000000081565b6040516001600160a01b039091168152602001610128565b34801561020f575f5ffd5b506101ec7f000000000000000000000000000000000000000000000000000000000000000081565b348015610242575f5ffd5b506101ec7f000000000000000000000000000000000000000000000000000000000000000081565b348015610275575f5ffd5b5061011e610284366004610a60565b60026020525f908152604090205481565b3480156102a0575f5ffd5b5061011e62aa36a781565b6102b361097a565b6001600160a01b0381166102da5760405163d92e233d60e01b815260040160405180910390fd5b5f60014614806102ec575062aa36a746145b156102fa57506001546102fd565b505f5b6040516370a0823160e01b81523060048201525f907f00000000000000000000000000000000000000000000000000000000000000006001600160a01b0316906370a0823190602401602060405180830381865afa158015610361573d5f5f3e3d5ffd5b505050506040513d601f19601f820116820180604052508101906103859190610a77565b905081811115610452575f61039a8383610aa2565b60405163a9059cbb60e01b81526001600160a01b038681166004830152602482018390529192505f917f0000000000000000000000000000000000000000000000000000000000000000169063a9059cbb906044016020604051808303815f875af115801561040b573d5f5f3e3d5ffd5b505050506040513d601f19601f8201168201806040525081019061042f9190610abb565b90508061044f576040516312171d8360e31b815260040160405180910390fd5b50505b505061045d60015f55565b50565b61046861097a565b336001600160a01b037f000000000000000000000000000000000000000000000000000000000000000016146104b1576040516324fbc28560e21b815260040160405180910390fd5b6001600160a01b0385166104d85760405163d92e233d60e01b815260040160405180910390fd5b835f036104f85760405163162908e360e11b815260040160405180910390fd5b6001461480610509575062aa36a746145b15610653575f8381526002602052604090205484111561053c576040516310da391960e21b815260040160405180910390fd5b83600154101561055f576040516310da391960e21b815260040160405180910390fd5b5f838152600260205260408120805486929061057c908490610aa2565b925050819055508360015f8282546105949190610aa2565b909155505060405163a9059cbb60e01b81526001600160a01b038681166004830152602482018690525f917f00000000000000000000000000000000000000000000000000000000000000009091169063a9059cbb906044016020604051808303815f875af1158015610609573d5f5f3e3d5ffd5b505050506040513d601f19601f8201168201806040525081019061062d9190610abb565b90508061064d576040516312171d8360e31b815260040160405180910390fd5b5061075c565b6040516340c10f1960e01b81526001600160a01b038681166004830152602482018690527f000000000000000000000000000000000000000000000000000000000000000016906340c10f19906044015f604051808303815f87803b1580156106ba575f5ffd5b505af11580156106cc573d5f5f3e3d5ffd5b505050508360035f8282546106e19190610ada565b9091555050604051630575902360e31b8152600481018290527f00000000000000000000000000000000000000000000000000000000000000006001600160a01b031690632bac8118906024015f604051808303815f87803b158015610745575f5ffd5b505af1158015610757573d5f5f3e3d5ffd5b505050505b604080518581526020810184905290810182905283906001600160a01b038716907fc537e8b35b25787c1d115c680a55386846113bc6a1fd425ac89372ada0924960906060015b60405180910390a36107b460015f55565b5050505050565b6107c361097a565b336001600160a01b037f0000000000000000000000000000000000000000000000000000000000000000161461080c576040516324fbc28560e21b815260040160405180910390fd5b845f0361082c5760405163162908e360e11b815260040160405180910390fd5b600146148061083d575062aa36a746145b15610880578460015f8282546108539190610ada565b90915550505f8481526002602052604081208054879290610875908490610ada565b9091555061092f9050565b8460035410156108a357604051632731e3c160e01b815260040160405180910390fd5b8460035f8282546108b49190610aa2565b9091555050604051630852cd8d60e31b8152600481018690527f00000000000000000000000000000000000000000000000000000000000000006001600160a01b0316906342966c68906024015f604051808303815f87803b158015610918575f5ffd5b505af115801561092a573d5f5f3e3d5ffd5b505050505b604080518681526020810185905290810183905284906001600160a01b038316907f6ea9ddd9345eddd832a547668989e36e0ba546c9321c8c2ec6b9c6c738568fbd906060016107a3565b60025f540361099c57604051633ee5aeb560e01b815260040160405180910390fd5b60025f55565b80356001600160a01b03811681146109b8575f5ffd5b919050565b5f602082840312156109cd575f5ffd5b6109d6826109a2565b9392505050565b5f5f5f5f5f60a086880312156109f1575f5ffd5b6109fa866109a2565b97602087013597506040870135966060810135965060800135945092505050565b5f5f5f5f5f60a08688031215610a2f575f5ffd5b85359450602086013593506040860135925060608601359150610a54608087016109a2565b90509295509295909350565b5f60208284031215610a70575f5ffd5b5035919050565b5f60208284031215610a87575f5ffd5b5051919050565b634e487b7160e01b5f52601160045260245ffd5b81810381811115610ab557610ab5610a8e565b92915050565b5f60208284031215610acb575f5ffd5b815180151581146109d6575f5ffd5b80820180821115610ab557610ab5610a8e5600000000000000000000000093486b98e64de344d6a5a322a4bd80e65d83e5ca000000000000000000000000e58867673428e50146d2a3d10d28a6314d038238000000000000000000000000dccc443758a713b57123a86c940398981c6d0f95"
      ],
      "transaction": {
        "from": "0x555350445e1f1ca212edb8cf397a383695ff7a36",
        "to": "0xba5ed099633d3b313e4d5f7bdc1305d3c28ba5ed",
        "gas": "0xe855c",
        "value": "0x0",
        "input": "0x26307668f7d2822d870288365cff1b75f7181035b99a4bbfcb232cde6b28e90dd7083c7000000000000000000000000000000000000000000000000000000000000000400000000000000000000000000000000000000000000000000000000000000ca660e060405234801561000f575f5ffd5b50604051610c46380380610c4683398101604081905261002e916100b7565b60015f556001600160a01b038316158061004f57506001600160a01b038216155b8061006157506001600160a01b038116155b1561007f5760405163d92e233d60e01b815260040160405180910390fd5b6001600160a01b0392831660805290821660a0521660c0526100f7565b80516001600160a01b03811681146100b2575f5ffd5b919050565b5f5f5f606084860312156100c9575f5ffd5b6100d28461009c565b92506100e06020850161009c565b91506100ee6040850161009c565b90509250925092565b60805160a05160c051610aed6101595f395f818161024801526106fc01525f81816101ca0152818161047301526107ce01525f818161021501528181610314015281816103c5015281816105c10152818161067901526108cf0152610aed5ff3fe60806040526004361061009d575f3560e01c806375ca208d1161006257806375ca208d1461019a578063d8585635146101b9578063e479ef9a14610204578063eee2421914610237578063f35097221461026a578063f7b89c1c14610295575f5ffd5b80630e5542c0146101095780631da7f242146101315780635f9d1f031461015257806368c2005714610167578063727fca5f1461017b575f5ffd5b366101055760405162461bcd60e51b815260206004820152602e60248201527f427269646765457363726f773a2044697265637420455448207472616e73666560448201526d1c9cc81b9bdd08185b1b1bddd95960921b606482015260840160405180910390fd5b5f5ffd5b348015610114575f5ffd5b5061011e60035481565b6040519081526020015b60405180910390f35b34801561013c575f5ffd5b5061015061014b3660046109bd565b6102ab565b005b34801561015d575f5ffd5b5061011e60015481565b348015610172575f5ffd5b5061011e600181565b348015610186575f5ffd5b506101506101953660046109dd565b610460565b3480156101a5575f5ffd5b506101506101b4366004610a1b565b6107bb565b3480156101c4575f5ffd5b506101ec7f000000000000000000000000000000000000000000000000000000000000000081565b6040516001600160a01b039091168152602001610128565b34801561020f575f5ffd5b506101ec7f000000000000000000000000000000000000000000000000000000000000000081565b348015610242575f5ffd5b506101ec7f000000000000000000000000000000000000000000000000000000000000000081565b348015610275575f5ffd5b5061011e610284366004610a60565b60026020525f908152604090205481565b3480156102a0575f5ffd5b5061011e62aa36a781565b6102b361097a565b6001600160a01b0381166102da5760405163d92e233d60e01b815260040160405180910390fd5b5f60014614806102ec575062aa36a746145b156102fa57506001546102fd565b505f5b6040516370a0823160e01b81523060048201525f907f00000000000000000000000000000000000000000000000000000000000000006001600160a01b0316906370a0823190602401602060405180830381865afa158015610361573d5f5f3e3d5ffd5b505050506040513d601f19601f820116820180604052508101906103859190610a77565b905081811115610452575f61039a8383610aa2565b60405163a9059cbb60e01b81526001600160a01b038681166004830152602482018390529192505f917f0000000000000000000000000000000000000000000000000000000000000000169063a9059cbb906044016020604051808303815f875af115801561040b573d5f5f3e3d5ffd5b505050506040513d601f19601f8201168201806040525081019061042f9190610abb565b90508061044f576040516312171d8360e31b815260040160405180910390fd5b50505b505061045d60015f55565b50565b61046861097a565b336001600160a01b037f000000000000000000000000000000000000000000000000000000000000000016146104b1576040516324fbc28560e21b815260040160405180910390fd5b6001600160a01b0385166104d85760405163d92e233d60e01b815260040160405180910390fd5b835f036104f85760405163162908e360e11b815260040160405180910390fd5b6001461480610509575062aa36a746145b15610653575f8381526002602052604090205484111561053c576040516310da391960e21b815260040160405180910390fd5b83600154101561055f576040516310da391960e21b815260040160405180910390fd5b5f838152600260205260408120805486929061057c908490610aa2565b925050819055508360015f8282546105949190610aa2565b909155505060405163a9059cbb60e01b81526001600160a01b038681166004830152602482018690525f917f00000000000000000000000000000000000000000000000000000000000000009091169063a9059cbb906044016020604051808303815f875af1158015610609573d5f5f3e3d5ffd5b505050506040513d601f19601f8201168201806040525081019061062d9190610abb565b90508061064d576040516312171d8360e31b815260040160405180910390fd5b5061075c565b6040516340c10f1960e01b81526001600160a01b038681166004830152602482018690527f000000000000000000000000000000000000000000000000000000000000000016906340c10f19906044015f604051808303815f87803b1580156106ba575f5ffd5b505af11580156106cc573d5f5f3e3d5ffd5b505050508360035f8282546106e19190610ada565b9091555050604051630575902360e31b8152600481018290527f00000000000000000000000000000000000000000000000000000000000000006001600160a01b031690632bac8118906024015f604051808303815f87803b158015610745575f5ffd5b505af1158015610757573d5f5f3e3d5ffd5b505050505b604080518581526020810184905290810182905283906001600160a01b038716907fc537e8b35b25787c1d115c680a55386846113bc6a1fd425ac89372ada0924960906060015b60405180910390a36107b460015f55565b5050505050565b6107c361097a565b336001600160a01b037f0000000000000000000000000000000000000000000000000000000000000000161461080c576040516324fbc28560e21b815260040160405180910390fd5b845f0361082c5760405163162908e360e11b815260040160405180910390fd5b600146148061083d575062aa36a746145b15610880578460015f8282546108539190610ada565b90915550505f8481526002602052604081208054879290610875908490610ada565b9091555061092f9050565b8460035410156108a357604051632731e3c160e01b815260040160405180910390fd5b8460035f8282546108b49190610aa2565b9091555050604051630852cd8d60e31b8152600481018690527f00000000000000000000000000000000000000000000000000000000000000006001600160a01b0316906342966c68906024015f604051808303815f87803b158015610918575f5ffd5b505af115801561092a573d5f5f3e3d5ffd5b505050505b604080518681526020810185905290810183905284906001600160a01b038316907f6ea9ddd9345eddd832a547668989e36e0ba546c9321c8c2ec6b9c6c738568fbd906060016107a3565b60025f540361099c57604051633ee5aeb560e01b815260040160405180910390fd5b60025f55565b80356001600160a01b03811681146109b8575f5ffd5b919050565b5f602082840312156109cd575f5ffd5b6109d6826109a2565b9392505050565b5f5f5f5f5f60a086880312156109f1575f5ffd5b6109fa866109a2565b97602087013597506040870135966060810135965060800135945092505050565b5f5f5f5f5f60a08688031215610a2f575f5ffd5b85359450602086013593506040860135925060608601359150610a54608087016109a2565b90509295509295909350565b5f60208284031215610a70575f5ffd5b5035919050565b5f60208284031215610a87575f5ffd5b5051919050565b634e487b7160e01b5f52601160045260245ffd5b81810381811115610ab557610ab5610a8e565b92915050565b5f60208284031215610acb575f5ffd5b815180151581146109d6575f5ffd5b80820180821115610ab557610ab5610a8e5600000000000000000000000093486b98e64de344d6a5a322a4bd80e65d83e5ca000000000000000000000000e58867673428e50146d2a3d10d28a6314d038238000000000000000000000000dccc443758a713b57123a86c940398981c6d0f950000000000000000000000000000000000000000000000000000",
        "nonce": "0x10",
        "chainId": "0x89"
      },
      "additionalContracts": [
        {
          "transactionType": "CREATE2",
          "address": "0x3bbcf508b1503440072a74450d01bbf3d7ff59aa",
          "initCode": "0x60e060405234801561000f575f5ffd5b50604051610c46380380610c4683398101604081905261002e916100b7565b60015f556001600160a01b038316158061004f57506001600160a01b038216155b8061006157506001600160a01b038116155b1561007f5760405163d92e233d60e01b815260040160405180910390fd5b6001600160a01b0392831660805290821660a0521660c0526100f7565b80516001600160a01b03811681146100b2575f5ffd5b919050565b5f5f5f606084860312156100c9575f5ffd5b6100d28461009c565b92506100e06020850161009c565b91506100ee6040850161009c565b90509250925092565b60805160a05160c051610aed6101595f395f818161024801526106fc01525f81816101ca0152818161047301526107ce01525f818161021501528181610314015281816103c5015281816105c10152818161067901526108cf0152610aed5ff3fe60806040526004361061009d575f3560e01c806375ca208d1161006257806375ca208d1461019a578063d8585635146101b9578063e479ef9a14610204578063eee2421914610237578063f35097221461026a578063f7b89c1c14610295575f5ffd5b80630e5542c0146101095780631da7f242146101315780635f9d1f031461015257806368c2005714610167578063727fca5f1461017b575f5ffd5b366101055760405162461bcd60e51b815260206004820152602e60248201527f427269646765457363726f773a2044697265637420455448207472616e73666560448201526d1c9cc81b9bdd08185b1b1bddd95960921b606482015260840160405180910390fd5b5f5ffd5b348015610114575f5ffd5b5061011e60035481565b6040519081526020015b60405180910390f35b34801561013c575f5ffd5b5061015061014b3660046109bd565b6102ab565b005b34801561015d575f5ffd5b5061011e60015481565b348015610172575f5ffd5b5061011e600181565b348015610186575f5ffd5b506101506101953660046109dd565b610460565b3480156101a5575f5ffd5b506101506101b4366004610a1b565b6107bb565b3480156101c4575f5ffd5b506101ec7f000000000000000000000000000000000000000000000000000000000000000081565b6040516001600160a01b039091168152602001610128565b34801561020f575f5ffd5b506101ec7f000000000000000000000000000000000000000000000000000000000000000081565b348015610242575f5ffd5b506101ec7f000000000000000000000000000000000000000000000000000000000000000081565b348015610275575f5ffd5b5061011e610284366004610a60565b60026020525f908152604090205481565b3480156102a0575f5ffd5b5061011e62aa36a781565b6102b361097a565b6001600160a01b0381166102da5760405163d92e233d60e01b815260040160405180910390fd5b5f60014614806102ec575062aa36a746145b156102fa57506001546102fd565b505f5b6040516370a0823160e01b81523060048201525f907f00000000000000000000000000000000000000000000000000000000000000006001600160a01b0316906370a0823190602401602060405180830381865afa158015610361573d5f5f3e3d5ffd5b505050506040513d601f19601f820116820180604052508101906103859190610a77565b905081811115610452575f61039a8383610aa2565b60405163a9059cbb60e01b81526001600160a01b038681166004830152602482018390529192505f917f0000000000000000000000000000000000000000000000000000000000000000169063a9059cbb906044016020604051808303815f875af115801561040b573d5f5f3e3d5ffd5b505050506040513d601f19601f8201168201806040525081019061042f9190610abb565b90508061044f576040516312171d8360e31b815260040160405180910390fd5b50505b505061045d60015f55565b50565b61046861097a565b336001600160a01b037f000000000000000000000000000000000000000000000000000000000000000016146104b1576040516324fbc28560e21b815260040160405180910390fd5b6001600160a01b0385166104d85760405163d92e233d60e01b815260040160405180910390fd5b835f036104f85760405163162908e360e11b815260040160405180910390fd5b6001461480610509575062aa36a746145b15610653575f8381526002602052604090205484111561053c576040516310da391960e21b815260040160405180910390fd5b83600154101561055f576040516310da391960e21b815260040160405180910390fd5b5f838152600260205260408120805486929061057c908490610aa2565b925050819055508360015f8282546105949190610aa2565b909155505060405163a9059cbb60e01b81526001600160a01b038681166004830152602482018690525f917f00000000000000000000000000000000000000000000000000000000000000009091169063a9059cbb906044016020604051808303815f875af1158015610609573d5f5f3e3d5ffd5b505050506040513d601f19601f8201168201806040525081019061062d9190610abb565b90508061064d576040516312171d8360e31b815260040160405180910390fd5b5061075c565b6040516340c10f1960e01b81526001600160a01b038681166004830152602482018690527f000000000000000000000000000000000000000000000000000000000000000016906340c10f19906044015f604051808303815f87803b1580156106ba575f5ffd5b505af11580156106cc573d5f5f3e3d5ffd5b505050508360035f8282546106e19190610ada565b9091555050604051630575902360e31b8152600481018290527f00000000000000000000000000000000000000000000000000000000000000006001600160a01b031690632bac8118906024015f604051808303815f87803b158015610745575f5ffd5b505af1158015610757573d5f5f3e3d5ffd5b505050505b604080518581526020810184905290810182905283906001600160a01b038716907fc537e8b35b25787c1d115c680a55386846113bc6a1fd425ac89372ada0924960906060015b60405180910390a36107b460015f55565b5050505050565b6107c361097a565b336001600160a01b037f0000000000000000000000000000000000000000000000000000000000000000161461080c576040516324fbc28560e21b815260040160405180910390fd5b845f0361082c5760405163162908e360e11b815260040160405180910390fd5b600146148061083d575062aa36a746145b15610880578460015f8282546108539190610ada565b90915550505f8481526002602052604081208054879290610875908490610ada565b9091555061092f9050565b8460035410156108a357604051632731e3c160e01b815260040160405180910390fd5b8460035f8282546108b49190610aa2565b9091555050604051630852cd8d60e31b8152600481018690527f00000000000000000000000000000000000000000000000000000000000000006001600160a01b0316906342966c68906024015f604051808303815f87803b158015610918575f5ffd5b505af115801561092a573d5f5f3e3d5ffd5b505050505b604080518681526020810185905290810183905284906001600160a01b038316907f6ea9ddd9345eddd832a547668989e36e0ba546c9321c8c2ec6b9c6c738568fbd906060016107a3565b60025f540361099c57604051633ee5aeb560e01b815260040160405180910390fd5b60025f55565b80356001600160a01b03811681146109b8575f5ffd5b919050565b5f602082840312156109cd575f5ffd5b6109d6826109a2565b9392505050565b5f5f5f5f5f60a086880312156109f1575f5ffd5b6109fa866109a2565b97602087013597506040870135966060810135965060800135945092505050565b5f5f5f5f5f60a08688031215610a2f575f5ffd5b85359450602086013593506040860135925060608601359150610a54608087016109a2565b90509295509295909350565b5f60208284031215610a70575f5ffd5b5035919050565b5f60208284031215610a87575f5ffd5b5051919050565b634e487b7160e01b5f52601160045260245ffd5b81810381811115610ab557610ab5610a8e565b92915050565b5f60208284031215610acb575f5ffd5b815180151581146109d6575f5ffd5b80820180821115610ab557610ab5610a8e5600000000000000000000000093486b98e64de344d6a5a322a4bd80e65d83e5ca000000000000000000000000e58867673428e50146d2a3d10d28a6314d038238000000000000000000000000dccc443758a713b57123a86c940398981c6d0f95"
        }
      ],
      "isFixedGasLimit": false
    },
    {
      "hash": "0xff20f2052369359af898531bd77440a22d1d7081325eed61f2b0a665ba67f95a",
      "transactionType": "CALL",
      "contractName": "USPDToken",
      "contractAddress": "0xe58867673428e50146d2a3d10d28a6314d038238",
      "function": "setBridgeEscrowAddress(address)",
      "arguments": [
        "0x3BbCF508b1503440072a74450d01Bbf3d7FF59aa"
      ],
      "transaction": {
        "from": "0x555350445e1f1ca212edb8cf397a383695ff7a36",
        "to": "0xe58867673428e50146d2a3d10d28a6314d038238",
        "gas": "0x1034f",
        "value": "0x0",
        "input": "0xb6501f050000000000000000000000003bbcf508b1503440072a74450d01bbf3d7ff59aa",
        "nonce": "0x11",
        "chainId": "0x89"
      },
      "additionalContracts": [],
      "isFixedGasLimit": false
    },
    {
      "hash": "0x50a41c3b629d8a059210ce6f856ae5c7ca94f4c3026dfc74dac0efaf1c0e99ba",
      "transactionType": "CALL",
      "contractName": null,
      "contractAddress": "0x93486b98e64de344d6a5a322a4bd80e65d83e5ca",
      "function": "grantRole(bytes32,address)",
      "arguments": [
        "0x9f2df0fed2c77648de5860a4cc508cd0818c85b8b8a1ab4ceeef8d981c8956a6",
        "0x3BbCF508b1503440072a74450d01Bbf3d7FF59aa"
      ],
      "transaction": {
        "from": "0x555350445e1f1ca212edb8cf397a383695ff7a36",
        "to": "0x93486b98e64de344d6a5a322a4bd80e65d83e5ca",
        "gas": "0x126a8",
        "value": "0x0",
        "input": "0x2f2ff15d9f2df0fed2c77648de5860a4cc508cd0818c85b8b8a1ab4ceeef8d981c8956a60000000000000000000000003bbcf508b1503440072a74450d01bbf3d7ff59aa",
        "nonce": "0x12",
        "chainId": "0x89"
      },
      "additionalContracts": [],
      "isFixedGasLimit": false
    },
    {
      "hash": "0xc4c7ac18527d0afce80a7f5c0efa85d599a1e1320dbc12e80bd42bbb26af444e",
      "transactionType": "CALL",
      "contractName": null,
      "contractAddress": "0x93486b98e64de344d6a5a322a4bd80e65d83e5ca",
      "function": "grantRole(bytes32,address)",
      "arguments": [
        "0x3c11d16cbaffd01df69ce1c404f6340ee057498f5f00246190ea54220576a848",
        "0x3BbCF508b1503440072a74450d01Bbf3d7FF59aa"
      ],
      "transaction": {
        "from": "0x555350445e1f1ca212edb8cf397a383695ff7a36",
        "to": "0x93486b98e64de344d6a5a322a4bd80e65d83e5ca",
        "gas": "0x11638",
        "value": "0x0",
        "input": "0x2f2ff15d3c11d16cbaffd01df69ce1c404f6340ee057498f5f00246190ea54220576a8480000000000000000000000003bbcf508b1503440072a74450d01bbf3d7ff59aa",
        "nonce": "0x13",
        "chainId": "0x89"
      },
      "additionalContracts": [],
      "isFixedGasLimit": false
    },
    {
      "hash": "0xb89fdd893d299b0916db42adab6426de9fd800897dfc7f877db8cb688e5dd72d",
      "transactionType": "CALL",
      "contractName": null,
      "contractAddress": "0xdccc443758a713b57123a86c940398981c6d0f95",
      "function": "grantRole(bytes32,address)",
      "arguments": [
        "0x6349981c8f973aae243626fb13628338972392c22bccc395c05a43c57e7f2439",
        "0x3BbCF508b1503440072a74450d01Bbf3d7FF59aa"
      ],
      "transaction": {
        "from": "0x555350445e1f1ca212edb8cf397a383695ff7a36",
        "to": "0xdccc443758a713b57123a86c940398981c6d0f95",
        "gas": "0x12661",
        "value": "0x0",
        "input": "0x2f2ff15d6349981c8f973aae243626fb13628338972392c22bccc395c05a43c57e7f24390000000000000000000000003bbcf508b1503440072a74450d01bbf3d7ff59aa",
        "nonce": "0x14",
        "chainId": "0x89"
      },
      "additionalContracts": [],
      "isFixedGasLimit": false
    }
  ],
  "receipts": [
    {
      "status": "0x1",
      "cumulativeGasUsed": "0x11b710d",
      "logs": [
        {
          "address": "0xba5ed099633d3b313e4d5f7bdc1305d3c28ba5ed",
          "topics": [
            "0xb8fda7e00c6b06a2b54e58521bc5894fee35f1090e5a3bb6390bfe2b98b497f7",
            "0x0000000000000000000000003bbcf508b1503440072a74450d01bbf3d7ff59aa",
            "0xdf29578ffc2425259aa2b8de28f70b00acaad316e00ddab2f03b73de29ea1519"
          ],
          "data": "0x",
          "blockHash": "0xb88a3b61df5c8e7ff0d62b9a3f557ba5ed59b7972ffe19a4855fdc8325aa3e87",
          "blockNumber": "0x490164c",
          "transactionHash": "0x71455f05fa386dee4f448eb284a47632349b29f45bdd2fd9464fff4140e6ffb6",
          "transactionIndex": "0x4e",
          "logIndex": "0x2f7",
          "removed": false
        },
        {
          "address": "0x0000000000000000000000000000000000001010",
          "topics": [
            "0x4dfe1bbbcf077ddc3e01291eea2d5c70c2b422b415d95645b9adcfd678cb1d63",
            "0x0000000000000000000000000000000000000000000000000000000000001010",
            "0x000000000000000000000000555350445e1f1ca212edb8cf397a383695ff7a36",
            "0x000000000000000000000000b9ede6f94d192073d8eaf85f8db677133d483249"
          ],
          "data": "0x0000000000000000000000000000000000000000000000000053c6c3c513287e00000000000000000000000000000000000000000000000977d5eb35b471bef600000000000000000000000000000000000000000000034d12f2c329674a3c9000000000000000000000000000000000000000000000000977822471ef5e967800000000000000000000000000000000000000000000034d134689ed2c5d650e",
          "blockHash": "0xb88a3b61df5c8e7ff0d62b9a3f557ba5ed59b7972ffe19a4855fdc8325aa3e87",
          "blockNumber": "0x490164c",
          "transactionHash": "0x71455f05fa386dee4f448eb284a47632349b29f45bdd2fd9464fff4140e6ffb6",
          "transactionIndex": "0x4e",
          "logIndex": "0x2f8",
          "removed": false
        }
      ],
      "logsBloom": "0x00020000000800000200000000400000000000000000000000000000000000000000000000000000000000000000000000008000000000000002000000000000000000000000001000000000000400800002000000000000000100000000000000000000000000000000000000000000000000000000000080000000000100000000000000000000000000000000100000000000000000000000000000000000200080000000000000100000000000000020000000000000000000000000004000000000000000000201000000000000000000002000000000100000000000000000000000000000100000000000000000000000000800200000000000100000",
      "type": "0x2",
      "transactionHash": "0x71455f05fa386dee4f448eb284a47632349b29f45bdd2fd9464fff4140e6ffb6",
      "transactionIndex": "0x4e",
      "blockHash": "0xb88a3b61df5c8e7ff0d62b9a3f557ba5ed59b7972ffe19a4855fdc8325aa3e87",
      "blockNumber": "0x490164c",
      "gasUsed": "0xa834e",
      "effectiveGasPrice": "0xd3a68b653",
      "from": "0x555350445e1f1ca212edb8cf397a383695ff7a36",
      "to": "0xba5ed099633d3b313e4d5f7bdc1305d3c28ba5ed",
      "contractAddress": null
    },
    {
      "status": "0x1",
      "cumulativeGasUsed": "0x1f455ef",
      "logs": [
        {
          "address": "0xe58867673428e50146d2a3d10d28a6314d038238",
          "topics": [
            "0x0842e0125c5dd8fb48b1a967ae420e8954c9ccb1f6a29f83ff9da9204895ff1a",
            "0x0000000000000000000000000000000000000000000000000000000000000000",
            "0x0000000000000000000000003bbcf508b1503440072a74450d01bbf3d7ff59aa"
          ],
          "data": "0x",
          "blockHash": "0xe4f11fd7528ccdb39ff37569729f33eb7bf1df1740413d5f5b7488b8e9734dff",
          "blockNumber": "0x490164d",
          "transactionHash": "0xff20f2052369359af898531bd77440a22d1d7081325eed61f2b0a665ba67f95a",
          "transactionIndex": "0x38",
          "logIndex": "0x1bb",
          "removed": false
        },
        {
          "address": "0x0000000000000000000000000000000000001010",
          "topics": [
            "0x4dfe1bbbcf077ddc3e01291eea2d5c70c2b422b415d95645b9adcfd678cb1d63",
            "0x0000000000000000000000000000000000000000000000000000000000001010",
            "0x000000000000000000000000555350445e1f1ca212edb8cf397a383695ff7a36",
            "0x000000000000000000000000b9ede6f94d192073d8eaf85f8db677133d483249"
          ],
          "data": "0x0000000000000000000000000000000000000000000000000005d811c811bec5000000000000000000000000000000000000000000000009774ada3333ffb8ac00000000000000000000000000000000000000000000034d28234e1c61b536dc000000000000000000000000000000000000000000000009774502216bedf9e700000000000000000000000000000000000000000000034d2829262e29c6f5a1",
          "blockHash": "0xe4f11fd7528ccdb39ff37569729f33eb7bf1df1740413d5f5b7488b8e9734dff",
          "blockNumber": "0x490164d",
          "transactionHash": "0xff20f2052369359af898531bd77440a22d1d7081325eed61f2b0a665ba67f95a",
          "transactionIndex": "0x38",
          "logIndex": "0x1bc",
          "removed": false
        }
      ],
      "logsBloom": "0x00000000000800800200000000400100000000000000000000000000000000000000000000000000000000000000000000008000000000000000000100000000000000000000000000000000000400800000000000000000000100000000000000000000020000000000000000000800000000000000000080000000020100000000000000000000000000000000000000000000010000000000000000000000200000000000000000100000000000000020000000000000000000000000004000000000000000000001000000000000000000000000000000100000000020000000000000000000100040000000000000000000000000200000000000100000",
      "type": "0x2",
      "transactionHash": "0xff20f2052369359af898531bd77440a22d1d7081325eed61f2b0a665ba67f95a",
      "transactionIndex": "0x38",
      "blockHash": "0xe4f11fd7528ccdb39ff37569729f33eb7bf1df1740413d5f5b7488b8e9734dff",
      "blockNumber": "0x490164d",
      "gasUsed": "0xbbbd",
      "effectiveGasPrice": "0xd3a35b007",
      "from": "0x555350445e1f1ca212edb8cf397a383695ff7a36",
      "to": "0xe58867673428e50146d2a3d10d28a6314d038238",
      "contractAddress": null
    },
    {
      "status": "0x1",
      "cumulativeGasUsed": "0xaa8ed2",
      "logs": [
        {
          "address": "0x93486b98e64de344d6a5a322a4bd80e65d83e5ca",
          "topics": [
            "0x2f8788117e7eff1d82e926ec794901d17c78024a50270940304540a733656f0d",
            "0x9f2df0fed2c77648de5860a4cc508cd0818c85b8b8a1ab4ceeef8d981c8956a6",
            "0x0000000000000000000000003bbcf508b1503440072a74450d01bbf3d7ff59aa",
            "0x000000000000000000000000555350445e1f1ca212edb8cf397a383695ff7a36"
          ],
          "data": "0x",
          "blockHash": "0xf3a2d9f04bc93ef6ba729489d58ce398e73612c0c1489d00fe91a76b08d4bf40",
          "blockNumber": "0x490164e",
          "transactionHash": "0x50a41c3b629d8a059210ce6f856ae5c7ca94f4c3026dfc74dac0efaf1c0e99ba",
          "transactionIndex": "0x42",
          "logIndex": "0x195",
          "removed": false
        },
        {
          "address": "0x0000000000000000000000000000000000001010",
          "topics": [
            "0x4dfe1bbbcf077ddc3e01291eea2d5c70c2b422b415d95645b9adcfd678cb1d63",
            "0x0000000000000000000000000000000000000000000000000000000000001010",
            "0x000000000000000000000000555350445e1f1ca212edb8cf397a383695ff7a36",
            "0x000000000000000000000000b9ede6f94d192073d8eaf85f8db677133d483249"
          ],
          "data": "0x0000000000000000000000000000000000000000000000000006458c70169f8a000000000000000000000000000000000000000000000009774126ea02c7a68100000000000000000000000000000000000000000000034d30c830266685b991000000000000000000000000000000000000000000000009773ae15d92b106f700000000000000000000000000000000000000000000034d30ce75b2d69c591b",
          "blockHash": "0xf3a2d9f04bc93ef6ba729489d58ce398e73612c0c1489d00fe91a76b08d4bf40",
          "blockNumber": "0x490164e",
          "transactionHash": "0x50a41c3b629d8a059210ce6f856ae5c7ca94f4c3026dfc74dac0efaf1c0e99ba",
          "transactionIndex": "0x42",
          "logIndex": "0x196",
          "removed": false
        }
      ],
      "logsBloom": "0x00000004000800000200000000400000000000000080000000000000000000000000000000000000000000000000014000008000000100000000000000000000000000000000000000000000000400800000000000000000000100000000000000000000000000000000000000000000000000000000000080000000001100000000000000000000000000000000000000000000000000000000000000000000200000000000000000100000000000000020000000000000001000000000004000000000000000000001000000000000001000000000000100100000000000000000000000000000100000000000000000000000000000200000000000100000",
      "type": "0x2",
      "transactionHash": "0x50a41c3b629d8a059210ce6f856ae5c7ca94f4c3026dfc74dac0efaf1c0e99ba",
      "transactionIndex": "0x42",
      "blockHash": "0xf3a2d9f04bc93ef6ba729489d58ce398e73612c0c1489d00fe91a76b08d4bf40",
      "blockNumber": "0x490164e",
      "gasUsed": "0xc97a",
      "effectiveGasPrice": "0xd46a41472",
      "from": "0x555350445e1f1ca212edb8cf397a383695ff7a36",
      "to": "0x93486b98e64de344d6a5a322a4bd80e65d83e5ca",
      "contractAddress": null
    },
    {
      "status": "0x1",
      "cumulativeGasUsed": "0xa395c7",
      "logs": [
        {
          "address": "0x93486b98e64de344d6a5a322a4bd80e65d83e5ca",
          "topics": [
            "0x2f8788117e7eff1d82e926ec794901d17c78024a50270940304540a733656f0d",
            "0x3c11d16cbaffd01df69ce1c404f6340ee057498f5f00246190ea54220576a848",
            "0x0000000000000000000000003bbcf508b1503440072a74450d01bbf3d7ff59aa",
            "0x000000000000000000000000555350445e1f1ca212edb8cf397a383695ff7a36"
          ],
          "data": "0x",
          "blockHash": "0x4591f579f36350a6c660b8e8ade20db1fca8f82110b68a23b8aab54aba0be825",
          "blockNumber": "0x490164f",
          "transactionHash": "0xc4c7ac18527d0afce80a7f5c0efa85d599a1e1320dbc12e80bd42bbb26af444e",
          "transactionIndex": "0x4c",
          "logIndex": "0x1c6",
          "removed": false
        },
        {
          "address": "0x0000000000000000000000000000000000001010",
          "topics": [
            "0x4dfe1bbbcf077ddc3e01291eea2d5c70c2b422b415d95645b9adcfd678cb1d63",
            "0x0000000000000000000000000000000000000000000000000000000000001010",
            "0x000000000000000000000000555350445e1f1ca212edb8cf397a383695ff7a36",
            "0x000000000000000000000000b9ede6f94d192073d8eaf85f8db677133d483249"
          ],
          "data": "0x0000000000000000000000000000000000000000000000000006452ccf98d39e0000000000000000000000000000000000000000000000097736b41f8488662d00000000000000000000000000000000000000000000034d3996665eed53123500000000000000000000000000000000000000000000000977306ef2b4ef928f00000000000000000000000000000000000000000000034d399cab8bbcebe5d3",
          "blockHash": "0x4591f579f36350a6c660b8e8ade20db1fca8f82110b68a23b8aab54aba0be825",
          "blockNumber": "0x490164f",
          "transactionHash": "0xc4c7ac18527d0afce80a7f5c0efa85d599a1e1320dbc12e80bd42bbb26af444e",
          "transactionIndex": "0x4c",
          "logIndex": "0x1c7",
          "removed": false
        }
      ],
      "logsBloom": "0x00000004000810000200000000400000000000000080000000000000000000000000000000000000000000000000010000008000000100000000000000000000000000000000000000000000000400800000000000000000000100000000000000000000000000000000000000000000000000000000000080000000000100000000000000000000000000000000000000000000000000000000000000000000200000000000000000100000000000000020000000004000001000000000004000040000000000000001000000000000000000000000000100100000000000000000000000000000100000000000000000000000000000200000000000100000",
      "type": "0x2",
      "transactionHash": "0xc4c7ac18527d0afce80a7f5c0efa85d599a1e1320dbc12e80bd42bbb26af444e",
      "transactionIndex": "0x4c",
      "blockHash": "0x4591f579f36350a6c660b8e8ade20db1fca8f82110b68a23b8aab54aba0be825",
      "blockNumber": "0x490164f",
      "gasUsed": "0xc96e",
      "effectiveGasPrice": "0xd3e7eb99b",
      "from": "0x555350445e1f1ca212edb8cf397a383695ff7a36",
      "to": "0x93486b98e64de344d6a5a322a4bd80e65d83e5ca",
      "contractAddress": null
    },
    {
      "status": "0x1",
      "cumulativeGasUsed": "0xa45f10",
      "logs": [
        {
          "address": "0xdccc443758a713b57123a86c940398981c6d0f95",
          "topics": [
            "0x2f8788117e7eff1d82e926ec794901d17c78024a50270940304540a733656f0d",
            "0x6349981c8f973aae243626fb13628338972392c22bccc395c05a43c57e7f2439",
            "0x0000000000000000000000003bbcf508b1503440072a74450d01bbf3d7ff59aa",
            "0x000000000000000000000000555350445e1f1ca212edb8cf397a383695ff7a36"
          ],
          "data": "0x",
          "blockHash": "0x4591f579f36350a6c660b8e8ade20db1fca8f82110b68a23b8aab54aba0be825",
          "blockNumber": "0x490164f",
          "transactionHash": "0xb89fdd893d299b0916db42adab6426de9fd800897dfc7f877db8cb688e5dd72d",
          "transactionIndex": "0x4d",
          "logIndex": "0x1c8",
          "removed": false
        },
        {
          "address": "0x0000000000000000000000000000000000001010",
          "topics": [
            "0x4dfe1bbbcf077ddc3e01291eea2d5c70c2b422b415d95645b9adcfd678cb1d63",
            "0x0000000000000000000000000000000000000000000000000000000000001010",
            "0x000000000000000000000000555350445e1f1ca212edb8cf397a383695ff7a36",
            "0x000000000000000000000000b9ede6f94d192073d8eaf85f8db677133d483249"
          ],
          "data": "0x00000000000000000000000000000000000000000000000000064405f614f431000000000000000000000000000000000000000000000009772c485d2a59f29300000000000000000000000000000000000000000000034d399cab8bbcebe5d3000000000000000000000000000000000000000000000009772604573444fe6200000000000000000000000000000000000000000000034d39a2ef91b300da04",
          "blockHash": "0x4591f579f36350a6c660b8e8ade20db1fca8f82110b68a23b8aab54aba0be825",
          "blockNumber": "0x490164f",
          "transactionHash": "0xb89fdd893d299b0916db42adab6426de9fd800897dfc7f877db8cb688e5dd72d",
          "transactionIndex": "0x4d",
          "logIndex": "0x1c9",
          "removed": false
        }
      ],
      "logsBloom": "0x00000004000800000200000000400000000000000000000100000000000000000000000000000000000000000000000000008000000000000000000000000200000000000000000000000000000400800004000000000000000100000000000000000000000000000000000000000000000000000000000080000000000100000000000000000000000000800000000000000000000000000000000000000000200000000000000000900000000000000020000000000000001000000000004000000000000000000011000000000000000000000000000100100000000000000000000000000000100000000000000000000000000000200000000000100000",
      "type": "0x2",
      "transactionHash": "0xb89fdd893d299b0916db42adab6426de9fd800897dfc7f877db8cb688e5dd72d",
      "transactionIndex": "0x4d",
      "blockHash": "0x4591f579f36350a6c660b8e8ade20db1fca8f82110b68a23b8aab54aba0be825",
      "blockNumber": "0x490164f",
      "gasUsed": "0xc949",
      "effectiveGasPrice": "0xd3e7eb99b",
      "from": "0x555350445e1f1ca212edb8cf397a383695ff7a36",
      "to": "0xdccc443758a713b57123a86c940398981c6d0f95",
      "contractAddress": null
    }
  ],
  "libraries": [],
  "pending": [],
  "returns": {},
  "timestamp": 1758094475959,
  "chain": 137,
  "commit": "01fdba5"
}